{"abi":[{"inputs":[{"internalType":"uint256","name":"minimum","type":"uint256"},{"internalType":"address","name":"creator","type":"address"},{"internalType":"string","name":"_campaignName","type":"string"},{"internalType":"string","name":"_creatorName","type":"string"}],"stateMutability":"nonpayable","type":"constructor"},{"inputs":[{"internalType":"uint256","name":"_index","type":"uint256"}],"name":"approveRequest","outputs":[],"stateMutability":"nonpayable","type":"function"},{"inputs":[{"internalType":"address","name":"","type":"address"}],"name":"approvers","outputs":[{"internalType":"bool","name":"","type":"bool"}],"stateMutability":"view","type":"function"},{"inputs":[],"name":"approversCount","outputs":[{"internalType":"uint256","name":"","type":"uint256"}],"stateMutability":"view","type":"function"},{"inputs":[],"name":"campaignName","outputs":[{"internalType":"string","name":"","type":"string"}],"stateMutability":"view","type":"function"},{"inputs":[],"name":"contribute","outputs":[],"stateMutability":"payable","type":"function"},{"inputs":[{"internalType":"string","name":"_description","type":"string"},{"internalType":"uint256","name":"_value","type":"uint256"},{"internalType":"address payable","name":"_recipient","type":"address"}],"name":"createRequest","outputs":[],"stateMutability":"nonpayable","type":"function"},{"inputs":[],"name":"creatorName","outputs":[{"internalType":"string","name":"","type":"string"}],"stateMutability":"view","type":"function"},{"inputs":[{"internalType":"uint256","name":"_index","type":"uint256"}],"name":"finalizeRequest","outputs":[],"stateMutability":"nonpayable","type":"function"},{"inputs":[],"name":"getRequestsCount","outputs":[{"internalType":"uint256","name":"","type":"uint256"}],"stateMutability":"view","type":"function"},{"inputs":[],"name":"getSummary","outputs":[{"internalType":"uint256","name":"","type":"uint256"},{"internalType":"uint256","name":"","type":"uint256"},{"internalType":"uint256","name":"","type":"uint256"},{"internalType":"uint256","name":"","type":"uint256"},{"internalType":"address","name":"","type":"address"},{"internalType":"string","name":"","type":"string"},{"internalType":"string","name":"","type":"string"}],"stateMutability":"view","type":"function"},{"inputs":[],"name":"manager","outputs":[{"internalType":"address","name":"","type":"address"}],"stateMutability":"view","type":"function"},{"inputs":[],"name":"minimumContribution","outputs":[{"internalType":"uint256","name":"","type":"uint256"}],"stateMutability":"view","type":"function"},{"inputs":[{"internalType":"uint256","name":"","type":"uint256"}],"name":"requests","outputs":[{"internalType":"string","name":"description","type":"string"},{"internalType":"uint256","name":"value","type":"uint256"},{"internalType":"address payable","name":"recipient","type":"address"},{"internalType":"bool","name":"complete","type":"bool"},{"internalType":"uint256","name":"approvalCount","type":"uint256"}],"stateMutability":"view","type":"function"}],"devdoc":{"kind":"dev","methods":{},"version":1},"evm":{"assembly":"    /* \"Campaign.sol\":544:3319  contract Campaign{... */\n  mstore(0x40, 0x80)\n    /* \"Campaign.sol\":914:915  0 */\n  0x00\n    /* \"Campaign.sol\":895:915  uint numRequests = 0 */\n  0x03\n  sstore\n    /* \"Campaign.sol\":1248:1529  constructor(uint minimum, ... */\n  callvalue\n  dup1\n  iszero\n  tag_1\n  jumpi\n  0x00\n  dup1\n  revert\ntag_1:\n  pop\n  mload(0x40)\n  sub(codesize, bytecodeSize)\n  dup1\n  bytecodeSize\n  dup4\n  codecopy\n  dup2\n  dup2\n  add\n  0x40\n  mstore\n  dup2\n  add\n  swap1\n  tag_2\n  swap2\n  swap1\n  tag_3\n  jump\t// in\ntag_2:\n    /* \"Campaign.sol\":1398:1405  creator */\n  dup3\n    /* \"Campaign.sol\":1388:1395  manager */\n  0x00\n  dup1\n    /* \"Campaign.sol\":1388:1405  manager = creator */\n  0x0100\n  exp\n  dup2\n  sload\n  dup2\n  0xffffffffffffffffffffffffffffffffffffffff\n  mul\n  not\n  and\n  swap1\n  dup4\n  0xffffffffffffffffffffffffffffffffffffffff\n  and\n  mul\n  or\n  swap1\n  sstore\n  pop\n    /* \"Campaign.sol\":1438:1445  minimum */\n  dup4\n    /* \"Campaign.sol\":1416:1435  minimumContribution */\n  0x01\n    /* \"Campaign.sol\":1416:1445  minimumContribution = minimum */\n  dup2\n  swap1\n  sstore\n  pop\n    /* \"Campaign.sol\":1471:1484  _campaignName */\n  dup2\n    /* \"Campaign.sol\":1456:1468  campaignName */\n  0x06\n    /* \"Campaign.sol\":1456:1484  campaignName = _campaignName */\n  swap1\n  dup1\n  mload\n  swap1\n  0x20\n  add\n  swap1\n  tag_6\n  swap3\n  swap2\n  swap1\n  tag_7\n  jump\t// in\ntag_6:\n  pop\n    /* \"Campaign.sol\":1509:1521  _creatorName */\n  dup1\n    /* \"Campaign.sol\":1495:1506  creatorName */\n  0x07\n    /* \"Campaign.sol\":1495:1521  creatorName = _creatorName */\n  swap1\n  dup1\n  mload\n  swap1\n  0x20\n  add\n  swap1\n  tag_8\n  swap3\n  swap2\n  swap1\n  tag_7\n  jump\t// in\ntag_8:\n  pop\n    /* \"Campaign.sol\":1248:1529  constructor(uint minimum, ... */\n  pop\n  pop\n  pop\n  pop\n    /* \"Campaign.sol\":544:3319  contract Campaign{... */\n  jump(tag_9)\ntag_7:\n  dup3\n  dup1\n  sload\n  tag_10\n  swap1\n  tag_11\n  jump\t// in\ntag_10:\n  swap1\n  0x00\n  mstore\n  keccak256(0x00, 0x20)\n  swap1\n  0x1f\n  add\n  0x20\n  swap1\n  div\n  dup2\n  add\n  swap3\n  dup3\n  tag_13\n  jumpi\n  0x00\n  dup6\n  sstore\n  jump(tag_12)\ntag_13:\n  dup3\n  0x1f\n  lt\n  tag_14\n  jumpi\n  dup1\n  mload\n  not(0xff)\n  and\n  dup4\n  dup1\n  add\n  or\n  dup6\n  sstore\n  jump(tag_12)\ntag_14:\n  dup3\n  dup1\n  add\n  0x01\n  add\n  dup6\n  sstore\n  dup3\n  iszero\n  tag_12\n  jumpi\n  swap2\n  dup3\n  add\ntag_15:\n  dup3\n  dup2\n  gt\n  iszero\n  tag_16\n  jumpi\n  dup3\n  mload\n  dup3\n  sstore\n  swap2\n  0x20\n  add\n  swap2\n  swap1\n  0x01\n  add\n  swap1\n  jump(tag_15)\ntag_16:\ntag_12:\n  pop\n  swap1\n  pop\n  tag_17\n  swap2\n  swap1\n  tag_18\n  jump\t// in\ntag_17:\n  pop\n  swap1\n  jump\t// out\ntag_18:\ntag_19:\n  dup1\n  dup3\n  gt\n  iszero\n  tag_20\n  jumpi\n  0x00\n  dup2\n  0x00\n  swap1\n  sstore\n  pop\n  0x01\n  add\n  jump(tag_19)\ntag_20:\n  pop\n  swap1\n  jump\t// out\n    /* \"#utility.yul\":7:82   */\ntag_21:\n    /* \"#utility.yul\":40:46   */\n  0x00\n    /* \"#utility.yul\":73:75   */\n  0x40\n    /* \"#utility.yul\":67:76   */\n  mload\n    /* \"#utility.yul\":57:76   */\n  swap1\n  pop\n    /* \"#utility.yul\":7:82   */\n  swap1\n  jump\t// out\n    /* \"#utility.yul\":88:205   */\ntag_22:\n    /* \"#utility.yul\":197:198   */\n  0x00\n    /* \"#utility.yul\":194:195   */\n  dup1\n    /* \"#utility.yul\":187:199   */\n  revert\n    /* \"#utility.yul\":211:328   */\ntag_23:\n    /* \"#utility.yul\":320:321   */\n  0x00\n    /* \"#utility.yul\":317:318   */\n  dup1\n    /* \"#utility.yul\":310:322   */\n  revert\n    /* \"#utility.yul\":334:411   */\ntag_24:\n    /* \"#utility.yul\":371:378   */\n  0x00\n    /* \"#utility.yul\":400:405   */\n  dup2\n    /* \"#utility.yul\":389:405   */\n  swap1\n  pop\n    /* \"#utility.yul\":334:411   */\n  swap2\n  swap1\n  pop\n  jump\t// out\n    /* \"#utility.yul\":417:539   */\ntag_25:\n    /* \"#utility.yul\":490:514   */\n  tag_48\n    /* \"#utility.yul\":508:513   */\n  dup2\n    /* \"#utility.yul\":490:514   */\n  tag_24\n  jump\t// in\ntag_48:\n    /* \"#utility.yul\":483:488   */\n  dup2\n    /* \"#utility.yul\":480:515   */\n  eq\n    /* \"#utility.yul\":470:533   */\n  tag_49\n  jumpi\n    /* \"#utility.yul\":529:530   */\n  0x00\n    /* \"#utility.yul\":526:527   */\n  dup1\n    /* \"#utility.yul\":519:531   */\n  revert\n    /* \"#utility.yul\":470:533   */\ntag_49:\n    /* \"#utility.yul\":417:539   */\n  pop\n  jump\t// out\n    /* \"#utility.yul\":545:688   */\ntag_26:\n    /* \"#utility.yul\":602:607   */\n  0x00\n    /* \"#utility.yul\":633:639   */\n  dup2\n    /* \"#utility.yul\":627:640   */\n  mload\n    /* \"#utility.yul\":618:640   */\n  swap1\n  pop\n    /* \"#utility.yul\":649:682   */\n  tag_51\n    /* \"#utility.yul\":676:681   */\n  dup2\n    /* \"#utility.yul\":649:682   */\n  tag_25\n  jump\t// in\ntag_51:\n    /* \"#utility.yul\":545:688   */\n  swap3\n  swap2\n  pop\n  pop\n  jump\t// out\n    /* \"#utility.yul\":694:820   */\ntag_27:\n    /* \"#utility.yul\":731:738   */\n  0x00\n    /* \"#utility.yul\":771:813   */\n  0xffffffffffffffffffffffffffffffffffffffff\n    /* \"#utility.yul\":764:769   */\n  dup3\n    /* \"#utility.yul\":760:814   */\n  and\n    /* \"#utility.yul\":749:814   */\n  swap1\n  pop\n    /* \"#utility.yul\":694:820   */\n  swap2\n  swap1\n  pop\n  jump\t// out\n    /* \"#utility.yul\":826:922   */\ntag_28:\n    /* \"#utility.yul\":863:870   */\n  0x00\n    /* \"#utility.yul\":892:916   */\n  tag_54\n    /* \"#utility.yul\":910:915   */\n  dup3\n    /* \"#utility.yul\":892:916   */\n  tag_27\n  jump\t// in\ntag_54:\n    /* \"#utility.yul\":881:916   */\n  swap1\n  pop\n    /* \"#utility.yul\":826:922   */\n  swap2\n  swap1\n  pop\n  jump\t// out\n    /* \"#utility.yul\":928:1050   */\ntag_29:\n    /* \"#utility.yul\":1001:1025   */\n  tag_56\n    /* \"#utility.yul\":1019:1024   */\n  dup2\n    /* \"#utility.yul\":1001:1025   */\n  tag_28\n  jump\t// in\ntag_56:\n    /* \"#utility.yul\":994:999   */\n  dup2\n    /* \"#utility.yul\":991:1026   */\n  eq\n    /* \"#utility.yul\":981:1044   */\n  tag_57\n  jumpi\n    /* \"#utility.yul\":1040:1041   */\n  0x00\n    /* \"#utility.yul\":1037:1038   */\n  dup1\n    /* \"#utility.yul\":1030:1042   */\n  revert\n    /* \"#utility.yul\":981:1044   */\ntag_57:\n    /* \"#utility.yul\":928:1050   */\n  pop\n  jump\t// out\n    /* \"#utility.yul\":1056:1199   */\ntag_30:\n    /* \"#utility.yul\":1113:1118   */\n  0x00\n    /* \"#utility.yul\":1144:1150   */\n  dup2\n    /* \"#utility.yul\":1138:1151   */\n  mload\n    /* \"#utility.yul\":1129:1151   */\n  swap1\n  pop\n    /* \"#utility.yul\":1160:1193   */\n  tag_59\n    /* \"#utility.yul\":1187:1192   */\n  dup2\n    /* \"#utility.yul\":1160:1193   */\n  tag_29\n  jump\t// in\ntag_59:\n    /* \"#utility.yul\":1056:1199   */\n  swap3\n  swap2\n  pop\n  pop\n  jump\t// out\n    /* \"#utility.yul\":1205:1322   */\ntag_31:\n    /* \"#utility.yul\":1314:1315   */\n  0x00\n    /* \"#utility.yul\":1311:1312   */\n  dup1\n    /* \"#utility.yul\":1304:1316   */\n  revert\n    /* \"#utility.yul\":1328:1445   */\ntag_32:\n    /* \"#utility.yul\":1437:1438   */\n  0x00\n    /* \"#utility.yul\":1434:1435   */\n  dup1\n    /* \"#utility.yul\":1427:1439   */\n  revert\n    /* \"#utility.yul\":1451:1553   */\ntag_33:\n    /* \"#utility.yul\":1492:1498   */\n  0x00\n    /* \"#utility.yul\":1543:1545   */\n  0x1f\n    /* \"#utility.yul\":1539:1546   */\n  not\n    /* \"#utility.yul\":1534:1536   */\n  0x1f\n    /* \"#utility.yul\":1527:1532   */\n  dup4\n    /* \"#utility.yul\":1523:1537   */\n  add\n    /* \"#utility.yul\":1519:1547   */\n  and\n    /* \"#utility.yul\":1509:1547   */\n  swap1\n  pop\n    /* \"#utility.yul\":1451:1553   */\n  swap2\n  swap1\n  pop\n  jump\t// out\n    /* \"#utility.yul\":1559:1739   */\ntag_34:\n    /* \"#utility.yul\":1607:1684   */\n  0x4e487b7100000000000000000000000000000000000000000000000000000000\n    /* \"#utility.yul\":1604:1605   */\n  0x00\n    /* \"#utility.yul\":1597:1685   */\n  mstore\n    /* \"#utility.yul\":1704:1708   */\n  0x41\n    /* \"#utility.yul\":1701:1702   */\n  0x04\n    /* \"#utility.yul\":1694:1709   */\n  mstore\n    /* \"#utility.yul\":1728:1732   */\n  0x24\n    /* \"#utility.yul\":1725:1726   */\n  0x00\n    /* \"#utility.yul\":1718:1733   */\n  revert\n    /* \"#utility.yul\":1745:2026   */\ntag_35:\n    /* \"#utility.yul\":1828:1855   */\n  tag_65\n    /* \"#utility.yul\":1850:1854   */\n  dup3\n    /* \"#utility.yul\":1828:1855   */\n  tag_33\n  jump\t// in\ntag_65:\n    /* \"#utility.yul\":1820:1826   */\n  dup2\n    /* \"#utility.yul\":1816:1856   */\n  add\n    /* \"#utility.yul\":1958:1964   */\n  dup2\n    /* \"#utility.yul\":1946:1956   */\n  dup2\n    /* \"#utility.yul\":1943:1965   */\n  lt\n    /* \"#utility.yul\":1922:1940   */\n  0xffffffffffffffff\n    /* \"#utility.yul\":1910:1920   */\n  dup3\n    /* \"#utility.yul\":1907:1941   */\n  gt\n    /* \"#utility.yul\":1904:1966   */\n  or\n    /* \"#utility.yul\":1901:1989   */\n  iszero\n  tag_66\n  jumpi\n    /* \"#utility.yul\":1969:1987   */\n  tag_67\n  tag_34\n  jump\t// in\ntag_67:\n    /* \"#utility.yul\":1901:1989   */\ntag_66:\n    /* \"#utility.yul\":2009:2019   */\n  dup1\n    /* \"#utility.yul\":2005:2007   */\n  0x40\n    /* \"#utility.yul\":1998:2020   */\n  mstore\n    /* \"#utility.yul\":1788:2026   */\n  pop\n    /* \"#utility.yul\":1745:2026   */\n  pop\n  pop\n  jump\t// out\n    /* \"#utility.yul\":2032:2161   */\ntag_36:\n    /* \"#utility.yul\":2066:2072   */\n  0x00\n    /* \"#utility.yul\":2093:2113   */\n  tag_69\n  tag_21\n  jump\t// in\ntag_69:\n    /* \"#utility.yul\":2083:2113   */\n  swap1\n  pop\n    /* \"#utility.yul\":2122:2155   */\n  tag_70\n    /* \"#utility.yul\":2150:2154   */\n  dup3\n    /* \"#utility.yul\":2142:2148   */\n  dup3\n    /* \"#utility.yul\":2122:2155   */\n  tag_35\n  jump\t// in\ntag_70:\n    /* \"#utility.yul\":2032:2161   */\n  swap2\n  swap1\n  pop\n  jump\t// out\n    /* \"#utility.yul\":2167:2475   */\ntag_37:\n    /* \"#utility.yul\":2229:2233   */\n  0x00\n    /* \"#utility.yul\":2319:2337   */\n  0xffffffffffffffff\n    /* \"#utility.yul\":2311:2317   */\n  dup3\n    /* \"#utility.yul\":2308:2338   */\n  gt\n    /* \"#utility.yul\":2305:2361   */\n  iszero\n  tag_72\n  jumpi\n    /* \"#utility.yul\":2341:2359   */\n  tag_73\n  tag_34\n  jump\t// in\ntag_73:\n    /* \"#utility.yul\":2305:2361   */\ntag_72:\n    /* \"#utility.yul\":2379:2408   */\n  tag_74\n    /* \"#utility.yul\":2401:2407   */\n  dup3\n    /* \"#utility.yul\":2379:2408   */\n  tag_33\n  jump\t// in\ntag_74:\n    /* \"#utility.yul\":2371:2408   */\n  swap1\n  pop\n    /* \"#utility.yul\":2463:2467   */\n  0x20\n    /* \"#utility.yul\":2457:2461   */\n  dup2\n    /* \"#utility.yul\":2453:2468   */\n  add\n    /* \"#utility.yul\":2445:2468   */\n  swap1\n  pop\n    /* \"#utility.yul\":2167:2475   */\n  swap2\n  swap1\n  pop\n  jump\t// out\n    /* \"#utility.yul\":2481:2788   */\ntag_38:\n    /* \"#utility.yul\":2549:2550   */\n  0x00\n    /* \"#utility.yul\":2559:2672   */\ntag_76:\n    /* \"#utility.yul\":2573:2579   */\n  dup4\n    /* \"#utility.yul\":2570:2571   */\n  dup2\n    /* \"#utility.yul\":2567:2580   */\n  lt\n    /* \"#utility.yul\":2559:2672   */\n  iszero\n  tag_78\n  jumpi\n    /* \"#utility.yul\":2658:2659   */\n  dup1\n    /* \"#utility.yul\":2653:2656   */\n  dup3\n    /* \"#utility.yul\":2649:2660   */\n  add\n    /* \"#utility.yul\":2643:2661   */\n  mload\n    /* \"#utility.yul\":2639:2640   */\n  dup2\n    /* \"#utility.yul\":2634:2637   */\n  dup5\n    /* \"#utility.yul\":2630:2641   */\n  add\n    /* \"#utility.yul\":2623:2662   */\n  mstore\n    /* \"#utility.yul\":2595:2597   */\n  0x20\n    /* \"#utility.yul\":2592:2593   */\n  dup2\n    /* \"#utility.yul\":2588:2598   */\n  add\n    /* \"#utility.yul\":2583:2598   */\n  swap1\n  pop\n    /* \"#utility.yul\":2559:2672   */\n  jump(tag_76)\ntag_78:\n    /* \"#utility.yul\":2690:2696   */\n  dup4\n    /* \"#utility.yul\":2687:2688   */\n  dup2\n    /* \"#utility.yul\":2684:2697   */\n  gt\n    /* \"#utility.yul\":2681:2782   */\n  iszero\n  tag_79\n  jumpi\n    /* \"#utility.yul\":2770:2771   */\n  0x00\n    /* \"#utility.yul\":2761:2767   */\n  dup5\n    /* \"#utility.yul\":2756:2759   */\n  dup5\n    /* \"#utility.yul\":2752:2768   */\n  add\n    /* \"#utility.yul\":2745:2772   */\n  mstore\n    /* \"#utility.yul\":2681:2782   */\ntag_79:\n    /* \"#utility.yul\":2530:2788   */\n  pop\n    /* \"#utility.yul\":2481:2788   */\n  pop\n  pop\n  pop\n  jump\t// out\n    /* \"#utility.yul\":2794:3215   */\ntag_39:\n    /* \"#utility.yul\":2883:2888   */\n  0x00\n    /* \"#utility.yul\":2908:2974   */\n  tag_81\n    /* \"#utility.yul\":2924:2973   */\n  tag_82\n    /* \"#utility.yul\":2966:2972   */\n  dup5\n    /* \"#utility.yul\":2924:2973   */\n  tag_37\n  jump\t// in\ntag_82:\n    /* \"#utility.yul\":2908:2974   */\n  tag_36\n  jump\t// in\ntag_81:\n    /* \"#utility.yul\":2899:2974   */\n  swap1\n  pop\n    /* \"#utility.yul\":2997:3003   */\n  dup3\n    /* \"#utility.yul\":2990:2995   */\n  dup2\n    /* \"#utility.yul\":2983:3004   */\n  mstore\n    /* \"#utility.yul\":3035:3039   */\n  0x20\n    /* \"#utility.yul\":3028:3033   */\n  dup2\n    /* \"#utility.yul\":3024:3040   */\n  add\n    /* \"#utility.yul\":3073:3076   */\n  dup5\n    /* \"#utility.yul\":3064:3070   */\n  dup5\n    /* \"#utility.yul\":3059:3062   */\n  dup5\n    /* \"#utility.yul\":3055:3071   */\n  add\n    /* \"#utility.yul\":3052:3077   */\n  gt\n    /* \"#utility.yul\":3049:3161   */\n  iszero\n  tag_83\n  jumpi\n    /* \"#utility.yul\":3080:3159   */\n  tag_84\n  tag_32\n  jump\t// in\ntag_84:\n    /* \"#utility.yul\":3049:3161   */\ntag_83:\n    /* \"#utility.yul\":3170:3209   */\n  tag_85\n    /* \"#utility.yul\":3202:3208   */\n  dup5\n    /* \"#utility.yul\":3197:3200   */\n  dup3\n    /* \"#utility.yul\":3192:3195   */\n  dup6\n    /* \"#utility.yul\":3170:3209   */\n  tag_38\n  jump\t// in\ntag_85:\n    /* \"#utility.yul\":2889:3215   */\n  pop\n    /* \"#utility.yul\":2794:3215   */\n  swap4\n  swap3\n  pop\n  pop\n  pop\n  jump\t// out\n    /* \"#utility.yul\":3235:3590   */\ntag_40:\n    /* \"#utility.yul\":3302:3307   */\n  0x00\n    /* \"#utility.yul\":3351:3354   */\n  dup3\n    /* \"#utility.yul\":3344:3348   */\n  0x1f\n    /* \"#utility.yul\":3336:3342   */\n  dup4\n    /* \"#utility.yul\":3332:3349   */\n  add\n    /* \"#utility.yul\":3328:3355   */\n  slt\n    /* \"#utility.yul\":3318:3440   */\n  tag_87\n  jumpi\n    /* \"#utility.yul\":3359:3438   */\n  tag_88\n  tag_31\n  jump\t// in\ntag_88:\n    /* \"#utility.yul\":3318:3440   */\ntag_87:\n    /* \"#utility.yul\":3469:3475   */\n  dup2\n    /* \"#utility.yul\":3463:3476   */\n  mload\n    /* \"#utility.yul\":3494:3584   */\n  tag_89\n    /* \"#utility.yul\":3580:3583   */\n  dup5\n    /* \"#utility.yul\":3572:3578   */\n  dup3\n    /* \"#utility.yul\":3565:3569   */\n  0x20\n    /* \"#utility.yul\":3557:3563   */\n  dup7\n    /* \"#utility.yul\":3553:3570   */\n  add\n    /* \"#utility.yul\":3494:3584   */\n  tag_39\n  jump\t// in\ntag_89:\n    /* \"#utility.yul\":3485:3584   */\n  swap2\n  pop\n    /* \"#utility.yul\":3308:3590   */\n  pop\n    /* \"#utility.yul\":3235:3590   */\n  swap3\n  swap2\n  pop\n  pop\n  jump\t// out\n    /* \"#utility.yul\":3596:4762   */\ntag_3:\n    /* \"#utility.yul\":3713:3719   */\n  0x00\n    /* \"#utility.yul\":3721:3727   */\n  dup1\n    /* \"#utility.yul\":3729:3735   */\n  0x00\n    /* \"#utility.yul\":3737:3743   */\n  dup1\n    /* \"#utility.yul\":3786:3789   */\n  0x80\n    /* \"#utility.yul\":3774:3783   */\n  dup6\n    /* \"#utility.yul\":3765:3772   */\n  dup8\n    /* \"#utility.yul\":3761:3784   */\n  sub\n    /* \"#utility.yul\":3757:3790   */\n  slt\n    /* \"#utility.yul\":3754:3874   */\n  iszero\n  tag_91\n  jumpi\n    /* \"#utility.yul\":3793:3872   */\n  tag_92\n  tag_22\n  jump\t// in\ntag_92:\n    /* \"#utility.yul\":3754:3874   */\ntag_91:\n    /* \"#utility.yul\":3913:3914   */\n  0x00\n    /* \"#utility.yul\":3938:4002   */\n  tag_93\n    /* \"#utility.yul\":3994:4001   */\n  dup8\n    /* \"#utility.yul\":3985:3991   */\n  dup3\n    /* \"#utility.yul\":3974:3983   */\n  dup9\n    /* \"#utility.yul\":3970:3992   */\n  add\n    /* \"#utility.yul\":3938:4002   */\n  tag_26\n  jump\t// in\ntag_93:\n    /* \"#utility.yul\":3928:4002   */\n  swap5\n  pop\n    /* \"#utility.yul\":3884:4012   */\n  pop\n    /* \"#utility.yul\":4051:4053   */\n  0x20\n    /* \"#utility.yul\":4077:4141   */\n  tag_94\n    /* \"#utility.yul\":4133:4140   */\n  dup8\n    /* \"#utility.yul\":4124:4130   */\n  dup3\n    /* \"#utility.yul\":4113:4122   */\n  dup9\n    /* \"#utility.yul\":4109:4131   */\n  add\n    /* \"#utility.yul\":4077:4141   */\n  tag_30\n  jump\t// in\ntag_94:\n    /* \"#utility.yul\":4067:4141   */\n  swap4\n  pop\n    /* \"#utility.yul\":4022:4151   */\n  pop\n    /* \"#utility.yul\":4211:4213   */\n  0x40\n    /* \"#utility.yul\":4200:4209   */\n  dup6\n    /* \"#utility.yul\":4196:4214   */\n  add\n    /* \"#utility.yul\":4190:4215   */\n  mload\n    /* \"#utility.yul\":4242:4260   */\n  0xffffffffffffffff\n    /* \"#utility.yul\":4234:4240   */\n  dup2\n    /* \"#utility.yul\":4231:4261   */\n  gt\n    /* \"#utility.yul\":4228:4345   */\n  iszero\n  tag_95\n  jumpi\n    /* \"#utility.yul\":4264:4343   */\n  tag_96\n  tag_23\n  jump\t// in\ntag_96:\n    /* \"#utility.yul\":4228:4345   */\ntag_95:\n    /* \"#utility.yul\":4369:4443   */\n  tag_97\n    /* \"#utility.yul\":4435:4442   */\n  dup8\n    /* \"#utility.yul\":4426:4432   */\n  dup3\n    /* \"#utility.yul\":4415:4424   */\n  dup9\n    /* \"#utility.yul\":4411:4433   */\n  add\n    /* \"#utility.yul\":4369:4443   */\n  tag_40\n  jump\t// in\ntag_97:\n    /* \"#utility.yul\":4359:4443   */\n  swap3\n  pop\n    /* \"#utility.yul\":4161:4453   */\n  pop\n    /* \"#utility.yul\":4513:4515   */\n  0x60\n    /* \"#utility.yul\":4502:4511   */\n  dup6\n    /* \"#utility.yul\":4498:4516   */\n  add\n    /* \"#utility.yul\":4492:4517   */\n  mload\n    /* \"#utility.yul\":4544:4562   */\n  0xffffffffffffffff\n    /* \"#utility.yul\":4536:4542   */\n  dup2\n    /* \"#utility.yul\":4533:4563   */\n  gt\n    /* \"#utility.yul\":4530:4647   */\n  iszero\n  tag_98\n  jumpi\n    /* \"#utility.yul\":4566:4645   */\n  tag_99\n  tag_23\n  jump\t// in\ntag_99:\n    /* \"#utility.yul\":4530:4647   */\ntag_98:\n    /* \"#utility.yul\":4671:4745   */\n  tag_100\n    /* \"#utility.yul\":4737:4744   */\n  dup8\n    /* \"#utility.yul\":4728:4734   */\n  dup3\n    /* \"#utility.yul\":4717:4726   */\n  dup9\n    /* \"#utility.yul\":4713:4735   */\n  add\n    /* \"#utility.yul\":4671:4745   */\n  tag_40\n  jump\t// in\ntag_100:\n    /* \"#utility.yul\":4661:4745   */\n  swap2\n  pop\n    /* \"#utility.yul\":4463:4755   */\n  pop\n    /* \"#utility.yul\":3596:4762   */\n  swap3\n  swap6\n  swap2\n  swap5\n  pop\n  swap3\n  pop\n  jump\t// out\n    /* \"#utility.yul\":4768:4948   */\ntag_41:\n    /* \"#utility.yul\":4816:4893   */\n  0x4e487b7100000000000000000000000000000000000000000000000000000000\n    /* \"#utility.yul\":4813:4814   */\n  0x00\n    /* \"#utility.yul\":4806:4894   */\n  mstore\n    /* \"#utility.yul\":4913:4917   */\n  0x22\n    /* \"#utility.yul\":4910:4911   */\n  0x04\n    /* \"#utility.yul\":4903:4918   */\n  mstore\n    /* \"#utility.yul\":4937:4941   */\n  0x24\n    /* \"#utility.yul\":4934:4935   */\n  0x00\n    /* \"#utility.yul\":4927:4942   */\n  revert\n    /* \"#utility.yul\":4954:5274   */\ntag_11:\n    /* \"#utility.yul\":4998:5004   */\n  0x00\n    /* \"#utility.yul\":5035:5036   */\n  0x02\n    /* \"#utility.yul\":5029:5033   */\n  dup3\n    /* \"#utility.yul\":5025:5037   */\n  div\n    /* \"#utility.yul\":5015:5037   */\n  swap1\n  pop\n    /* \"#utility.yul\":5082:5083   */\n  0x01\n    /* \"#utility.yul\":5076:5080   */\n  dup3\n    /* \"#utility.yul\":5072:5084   */\n  and\n    /* \"#utility.yul\":5103:5121   */\n  dup1\n    /* \"#utility.yul\":5093:5174   */\n  tag_103\n  jumpi\n    /* \"#utility.yul\":5159:5163   */\n  0x7f\n    /* \"#utility.yul\":5151:5157   */\n  dup3\n    /* \"#utility.yul\":5147:5164   */\n  and\n    /* \"#utility.yul\":5137:5164   */\n  swap2\n  pop\n    /* \"#utility.yul\":5093:5174   */\ntag_103:\n    /* \"#utility.yul\":5221:5223   */\n  0x20\n    /* \"#utility.yul\":5213:5219   */\n  dup3\n    /* \"#utility.yul\":5210:5224   */\n  lt\n    /* \"#utility.yul\":5190:5208   */\n  dup2\n    /* \"#utility.yul\":5187:5225   */\n  eq\n    /* \"#utility.yul\":5184:5268   */\n  iszero\n  tag_104\n  jumpi\n    /* \"#utility.yul\":5240:5258   */\n  tag_105\n  tag_41\n  jump\t// in\ntag_105:\n    /* \"#utility.yul\":5184:5268   */\ntag_104:\n    /* \"#utility.yul\":5005:5274   */\n  pop\n    /* \"#utility.yul\":4954:5274   */\n  swap2\n  swap1\n  pop\n  jump\t// out\n    /* \"Campaign.sol\":544:3319  contract Campaign{... */\ntag_9:\n  dataSize(sub_0)\n  dup1\n  dataOffset(sub_0)\n  0x00\n  codecopy\n  0x00\n  return\nstop\n\nsub_0: assembly {\n        /* \"Campaign.sol\":544:3319  contract Campaign{... */\n      mstore(0x40, 0x80)\n      jumpi(tag_1, lt(calldatasize, 0x04))\n      shr(0xe0, calldataload(0x00))\n      dup1\n      0x481c6a75\n      gt\n      tag_15\n      jumpi\n      dup1\n      0x8a9cfd55\n      gt\n      tag_16\n      jumpi\n      dup1\n      0x8a9cfd55\n      eq\n      tag_11\n      jumpi\n      dup1\n      0x937e09b1\n      eq\n      tag_12\n      jumpi\n      dup1\n      0xd7bb99ba\n      eq\n      tag_13\n      jumpi\n      dup1\n      0xd7d1bbdb\n      eq\n      tag_14\n      jumpi\n      jump(tag_1)\n    tag_16:\n      dup1\n      0x481c6a75\n      eq\n      tag_8\n      jumpi\n      dup1\n      0x81d12c58\n      eq\n      tag_9\n      jumpi\n      dup1\n      0x82fde093\n      eq\n      tag_10\n      jumpi\n      jump(tag_1)\n    tag_15:\n      dup1\n      0x03441006\n      eq\n      tag_2\n      jumpi\n      dup1\n      0x0724fda9\n      eq\n      tag_3\n      jumpi\n      dup1\n      0x0a144391\n      eq\n      tag_4\n      jumpi\n      dup1\n      0x1f6f90bd\n      eq\n      tag_5\n      jumpi\n      dup1\n      0x3410452a\n      eq\n      tag_6\n      jumpi\n      dup1\n      0x4051ddac\n      eq\n      tag_7\n      jumpi\n    tag_1:\n      0x00\n      dup1\n      revert\n        /* \"Campaign.sol\":2490:2795  function finalizeRequest(uint _index) public restricted{... */\n    tag_2:\n      callvalue\n      dup1\n      iszero\n      tag_17\n      jumpi\n      0x00\n      dup1\n      revert\n    tag_17:\n      pop\n      tag_18\n      0x04\n      dup1\n      calldatasize\n      sub\n      dup2\n      add\n      swap1\n      tag_19\n      swap2\n      swap1\n      tag_20\n      jump\t// in\n    tag_19:\n      tag_21\n      jump\t// in\n    tag_18:\n      stop\n        /* \"Campaign.sol\":1003:1029  string public campaignName */\n    tag_3:\n      callvalue\n      dup1\n      iszero\n      tag_22\n      jumpi\n      0x00\n      dup1\n      revert\n    tag_22:\n      pop\n      tag_23\n      tag_24\n      jump\t// in\n    tag_23:\n      mload(0x40)\n      tag_25\n      swap2\n      swap1\n      tag_26\n      jump\t// in\n    tag_25:\n      mload(0x40)\n      dup1\n      swap2\n      sub\n      swap1\n      return\n        /* \"Campaign.sol\":848:888  mapping (address=>bool) public approvers */\n    tag_4:\n      callvalue\n      dup1\n      iszero\n      tag_27\n      jumpi\n      0x00\n      dup1\n      revert\n    tag_27:\n      pop\n      tag_28\n      0x04\n      dup1\n      calldatasize\n      sub\n      dup2\n      add\n      swap1\n      tag_29\n      swap2\n      swap1\n      tag_30\n      jump\t// in\n    tag_29:\n      tag_31\n      jump\t// in\n    tag_28:\n      mload(0x40)\n      tag_32\n      swap2\n      swap1\n      tag_33\n      jump\t// in\n    tag_32:\n      mload(0x40)\n      dup1\n      swap2\n      sub\n      swap1\n      return\n        /* \"Campaign.sol\":1036:1061  string public creatorName */\n    tag_5:\n      callvalue\n      dup1\n      iszero\n      tag_34\n      jumpi\n      0x00\n      dup1\n      revert\n    tag_34:\n      pop\n      tag_35\n      tag_36\n      jump\t// in\n    tag_35:\n      mload(0x40)\n      tag_37\n      swap2\n      swap1\n      tag_26\n      jump\t// in\n    tag_37:\n      mload(0x40)\n      dup1\n      swap2\n      sub\n      swap1\n      return\n        /* \"Campaign.sol\":3224:3316  function getRequestsCount() public view returns (uint){... */\n    tag_6:\n      callvalue\n      dup1\n      iszero\n      tag_38\n      jumpi\n      0x00\n      dup1\n      revert\n    tag_38:\n      pop\n      tag_39\n      tag_40\n      jump\t// in\n    tag_39:\n      mload(0x40)\n      tag_41\n      swap2\n      swap1\n      tag_42\n      jump\t// in\n    tag_41:\n      mload(0x40)\n      dup1\n      swap2\n      sub\n      swap1\n      return\n        /* \"Campaign.sol\":2801:3212  function getSummary() public view returns (... */\n    tag_7:\n      callvalue\n      dup1\n      iszero\n      tag_43\n      jumpi\n      0x00\n      dup1\n      revert\n    tag_43:\n      pop\n      tag_44\n      tag_45\n      jump\t// in\n    tag_44:\n      mload(0x40)\n      tag_46\n      swap8\n      swap7\n      swap6\n      swap5\n      swap4\n      swap3\n      swap2\n      swap1\n      tag_47\n      jump\t// in\n    tag_46:\n      mload(0x40)\n      dup1\n      swap2\n      sub\n      swap1\n      return\n        /* \"Campaign.sol\":781:803  address public manager */\n    tag_8:\n      callvalue\n      dup1\n      iszero\n      tag_48\n      jumpi\n      0x00\n      dup1\n      revert\n    tag_48:\n      pop\n      tag_49\n      tag_50\n      jump\t// in\n    tag_49:\n      mload(0x40)\n      tag_51\n      swap2\n      swap1\n      tag_52\n      jump\t// in\n    tag_51:\n      mload(0x40)\n      dup1\n      swap2\n      sub\n      swap1\n      return\n        /* \"Campaign.sol\":922:963  mapping (uint => Request) public requests */\n    tag_9:\n      callvalue\n      dup1\n      iszero\n      tag_53\n      jumpi\n      0x00\n      dup1\n      revert\n    tag_53:\n      pop\n      tag_54\n      0x04\n      dup1\n      calldatasize\n      sub\n      dup2\n      add\n      swap1\n      tag_55\n      swap2\n      swap1\n      tag_20\n      jump\t// in\n    tag_55:\n      tag_56\n      jump\t// in\n    tag_54:\n      mload(0x40)\n      tag_57\n      swap6\n      swap5\n      swap4\n      swap3\n      swap2\n      swap1\n      tag_58\n      jump\t// in\n    tag_57:\n      mload(0x40)\n      dup1\n      swap2\n      sub\n      swap1\n      return\n        /* \"Campaign.sol\":970:996  uint public approversCount */\n    tag_10:\n      callvalue\n      dup1\n      iszero\n      tag_59\n      jumpi\n      0x00\n      dup1\n      revert\n    tag_59:\n      pop\n      tag_60\n      tag_61\n      jump\t// in\n    tag_60:\n      mload(0x40)\n      tag_62\n      swap2\n      swap1\n      tag_42\n      jump\t// in\n    tag_62:\n      mload(0x40)\n      dup1\n      swap2\n      sub\n      swap1\n      return\n        /* \"Campaign.sol\":1782:2123  function createRequest(string memory _description, uint _value, address payable _recipient) ... */\n    tag_11:\n      callvalue\n      dup1\n      iszero\n      tag_63\n      jumpi\n      0x00\n      dup1\n      revert\n    tag_63:\n      pop\n      tag_64\n      0x04\n      dup1\n      calldatasize\n      sub\n      dup2\n      add\n      swap1\n      tag_65\n      swap2\n      swap1\n      tag_66\n      jump\t// in\n    tag_65:\n      tag_67\n      jump\t// in\n    tag_64:\n      stop\n        /* \"Campaign.sol\":810:841  uint public minimumContribution */\n    tag_12:\n      callvalue\n      dup1\n      iszero\n      tag_68\n      jumpi\n      0x00\n      dup1\n      revert\n    tag_68:\n      pop\n      tag_69\n      tag_70\n      jump\t// in\n    tag_69:\n      mload(0x40)\n      tag_71\n      swap2\n      swap1\n      tag_42\n      jump\t// in\n    tag_71:\n      mload(0x40)\n      dup1\n      swap2\n      sub\n      swap1\n      return\n        /* \"Campaign.sol\":1537:1774  function contribute() public payable{... */\n    tag_13:\n      tag_72\n      tag_73\n      jump\t// in\n    tag_72:\n      stop\n        /* \"Campaign.sol\":2129:2484  function approveRequest(uint _index) public approved{... */\n    tag_14:\n      callvalue\n      dup1\n      iszero\n      tag_74\n      jumpi\n      0x00\n      dup1\n      revert\n    tag_74:\n      pop\n      tag_75\n      0x04\n      dup1\n      calldatasize\n      sub\n      dup2\n      add\n      swap1\n      tag_76\n      swap2\n      swap1\n      tag_20\n      jump\t// in\n    tag_76:\n      tag_77\n      jump\t// in\n    tag_75:\n      stop\n        /* \"Campaign.sol\":2490:2795  function finalizeRequest(uint _index) public restricted{... */\n    tag_21:\n        /* \"Campaign.sol\":1126:1133  manager */\n      0x00\n      dup1\n      sload\n      swap1\n      0x0100\n      exp\n      swap1\n      div\n      0xffffffffffffffffffffffffffffffffffffffff\n      and\n        /* \"Campaign.sol\":1112:1133  msg.sender == manager */\n      0xffffffffffffffffffffffffffffffffffffffff\n      and\n        /* \"Campaign.sol\":1112:1122  msg.sender */\n      caller\n        /* \"Campaign.sol\":1112:1133  msg.sender == manager */\n      0xffffffffffffffffffffffffffffffffffffffff\n      and\n      eq\n        /* \"Campaign.sol\":1104:1134  require(msg.sender == manager) */\n      tag_79\n      jumpi\n      0x00\n      dup1\n      revert\n    tag_79:\n        /* \"Campaign.sol\":2556:2579  Request storage request */\n      0x00\n        /* \"Campaign.sol\":2582:2590  requests */\n      0x04\n        /* \"Campaign.sol\":2582:2598  requests[_index] */\n      0x00\n        /* \"Campaign.sol\":2591:2597  _index */\n      dup4\n        /* \"Campaign.sol\":2582:2598  requests[_index] */\n      dup2\n      mstore\n      0x20\n      add\n      swap1\n      dup2\n      mstore\n      0x20\n      add\n      0x00\n      keccak256\n        /* \"Campaign.sol\":2556:2598  Request storage request = requests[_index] */\n      swap1\n      pop\n        /* \"Campaign.sol\":2618:2625  request */\n      dup1\n        /* \"Campaign.sol\":2618:2634  request.complete */\n      0x02\n      add\n      0x14\n      swap1\n      sload\n      swap1\n      0x0100\n      exp\n      swap1\n      div\n      0xff\n      and\n        /* \"Campaign.sol\":2617:2634  !request.complete */\n      iszero\n        /* \"Campaign.sol\":2609:2635  require(!request.complete) */\n      tag_81\n      jumpi\n      0x00\n      dup1\n      revert\n    tag_81:\n        /* \"Campaign.sol\":2696:2697  2 */\n      0x02\n        /* \"Campaign.sol\":2679:2693  approversCount */\n      sload(0x05)\n        /* \"Campaign.sol\":2679:2697  approversCount / 2 */\n      tag_82\n      swap2\n      swap1\n      tag_83\n      jump\t// in\n    tag_82:\n        /* \"Campaign.sol\":2654:2661  request */\n      dup2\n        /* \"Campaign.sol\":2654:2675  request.approvalCount */\n      0x03\n      add\n      sload\n        /* \"Campaign.sol\":2654:2698  request.approvalCount > (approversCount / 2) */\n      gt\n        /* \"Campaign.sol\":2646:2699  require(request.approvalCount > (approversCount / 2)) */\n      tag_84\n      jumpi\n      0x00\n      dup1\n      revert\n    tag_84:\n        /* \"Campaign.sol\":2712:2719  request */\n      dup1\n        /* \"Campaign.sol\":2712:2729  request.recipient */\n      0x02\n      add\n      0x00\n      swap1\n      sload\n      swap1\n      0x0100\n      exp\n      swap1\n      div\n      0xffffffffffffffffffffffffffffffffffffffff\n      and\n        /* \"Campaign.sol\":2712:2738  request.recipient.transfer */\n      0xffffffffffffffffffffffffffffffffffffffff\n      and\n        /* \"Campaign.sol\":2712:2753  request.recipient.transfer(request.value) */\n      0x08fc\n        /* \"Campaign.sol\":2739:2746  request */\n      dup3\n        /* \"Campaign.sol\":2739:2752  request.value */\n      0x01\n      add\n      sload\n        /* \"Campaign.sol\":2712:2753  request.recipient.transfer(request.value) */\n      swap1\n      dup2\n      iszero\n      mul\n      swap1\n      mload(0x40)\n      0x00\n      mload(0x40)\n      dup1\n      dup4\n      sub\n      dup2\n      dup6\n      dup9\n      dup9\n      call\n      swap4\n      pop\n      pop\n      pop\n      pop\n      iszero\n      dup1\n      iszero\n      tag_86\n      jumpi\n      returndatasize\n      0x00\n      dup1\n      returndatacopy\n      revert(0x00, returndatasize)\n    tag_86:\n      pop\n        /* \"Campaign.sol\":2783:2787  true */\n      0x01\n        /* \"Campaign.sol\":2764:2771  request */\n      dup2\n        /* \"Campaign.sol\":2764:2780  request.complete */\n      0x02\n      add\n      0x14\n        /* \"Campaign.sol\":2764:2787  request.complete = true */\n      0x0100\n      exp\n      dup2\n      sload\n      dup2\n      0xff\n      mul\n      not\n      and\n      swap1\n      dup4\n      iszero\n      iszero\n      mul\n      or\n      swap1\n      sstore\n      pop\n        /* \"Campaign.sol\":2545:2795  {... */\n      pop\n        /* \"Campaign.sol\":2490:2795  function finalizeRequest(uint _index) public restricted{... */\n      pop\n      jump\t// out\n        /* \"Campaign.sol\":1003:1029  string public campaignName */\n    tag_24:\n      0x06\n      dup1\n      sload\n      tag_87\n      swap1\n      tag_88\n      jump\t// in\n    tag_87:\n      dup1\n      0x1f\n      add\n      0x20\n      dup1\n      swap2\n      div\n      mul\n      0x20\n      add\n      mload(0x40)\n      swap1\n      dup2\n      add\n      0x40\n      mstore\n      dup1\n      swap3\n      swap2\n      swap1\n      dup2\n      dup2\n      mstore\n      0x20\n      add\n      dup3\n      dup1\n      sload\n      tag_89\n      swap1\n      tag_88\n      jump\t// in\n    tag_89:\n      dup1\n      iszero\n      tag_90\n      jumpi\n      dup1\n      0x1f\n      lt\n      tag_91\n      jumpi\n      0x0100\n      dup1\n      dup4\n      sload\n      div\n      mul\n      dup4\n      mstore\n      swap2\n      0x20\n      add\n      swap2\n      jump(tag_90)\n    tag_91:\n      dup3\n      add\n      swap2\n      swap1\n      0x00\n      mstore\n      keccak256(0x00, 0x20)\n      swap1\n    tag_92:\n      dup2\n      sload\n      dup2\n      mstore\n      swap1\n      0x01\n      add\n      swap1\n      0x20\n      add\n      dup1\n      dup4\n      gt\n      tag_92\n      jumpi\n      dup3\n      swap1\n      sub\n      0x1f\n      and\n      dup3\n      add\n      swap2\n    tag_90:\n      pop\n      pop\n      pop\n      pop\n      pop\n      dup2\n      jump\t// out\n        /* \"Campaign.sol\":848:888  mapping (address=>bool) public approvers */\n    tag_31:\n      mstore(0x20, 0x02)\n      dup1\n      0x00\n      mstore\n      keccak256(0x00, 0x40)\n      0x00\n      swap2\n      pop\n      sload\n      swap1\n      0x0100\n      exp\n      swap1\n      div\n      0xff\n      and\n      dup2\n      jump\t// out\n        /* \"Campaign.sol\":1036:1061  string public creatorName */\n    tag_36:\n      0x07\n      dup1\n      sload\n      tag_93\n      swap1\n      tag_88\n      jump\t// in\n    tag_93:\n      dup1\n      0x1f\n      add\n      0x20\n      dup1\n      swap2\n      div\n      mul\n      0x20\n      add\n      mload(0x40)\n      swap1\n      dup2\n      add\n      0x40\n      mstore\n      dup1\n      swap3\n      swap2\n      swap1\n      dup2\n      dup2\n      mstore\n      0x20\n      add\n      dup3\n      dup1\n      sload\n      tag_94\n      swap1\n      tag_88\n      jump\t// in\n    tag_94:\n      dup1\n      iszero\n      tag_95\n      jumpi\n      dup1\n      0x1f\n      lt\n      tag_96\n      jumpi\n      0x0100\n      dup1\n      dup4\n      sload\n      div\n      mul\n      dup4\n      mstore\n      swap2\n      0x20\n      add\n      swap2\n      jump(tag_95)\n    tag_96:\n      dup3\n      add\n      swap2\n      swap1\n      0x00\n      mstore\n      keccak256(0x00, 0x20)\n      swap1\n    tag_97:\n      dup2\n      sload\n      dup2\n      mstore\n      swap1\n      0x01\n      add\n      swap1\n      0x20\n      add\n      dup1\n      dup4\n      gt\n      tag_97\n      jumpi\n      dup3\n      swap1\n      sub\n      0x1f\n      and\n      dup3\n      add\n      swap2\n    tag_95:\n      pop\n      pop\n      pop\n      pop\n      pop\n      dup2\n      jump\t// out\n        /* \"Campaign.sol\":3224:3316  function getRequestsCount() public view returns (uint){... */\n    tag_40:\n        /* \"Campaign.sol\":3273:3277  uint */\n      0x00\n        /* \"Campaign.sol\":3296:3307  numRequests */\n      sload(0x03)\n        /* \"Campaign.sol\":3289:3308  return(numRequests) */\n      swap1\n      pop\n        /* \"Campaign.sol\":3224:3316  function getRequestsCount() public view returns (uint){... */\n      swap1\n      jump\t// out\n        /* \"Campaign.sol\":2801:3212  function getSummary() public view returns (... */\n    tag_45:\n        /* \"Campaign.sol\":2854:2858  uint */\n      0x00\n        /* \"Campaign.sol\":2869:2873  uint */\n      dup1\n        /* \"Campaign.sol\":2884:2888  uint */\n      0x00\n        /* \"Campaign.sol\":2899:2903  uint */\n      dup1\n        /* \"Campaign.sol\":2914:2921  address */\n      0x00\n        /* \"Campaign.sol\":2932:2945  string memory */\n      0x60\n        /* \"Campaign.sol\":2956:2969  string memory */\n      dup1\n        /* \"Campaign.sol\":3008:3027  minimumContribution */\n      sload(0x01)\n        /* \"Campaign.sol\":3042:3063  address(this).balance */\n      selfbalance\n        /* \"Campaign.sol\":3078:3089  numRequests */\n      sload(0x03)\n        /* \"Campaign.sol\":3104:3118  approversCount */\n      sload(0x05)\n        /* \"Campaign.sol\":3133:3140  manager */\n      0x00\n      dup1\n      sload\n      swap1\n      0x0100\n      exp\n      swap1\n      div\n      0xffffffffffffffffffffffffffffffffffffffff\n      and\n        /* \"Campaign.sol\":3155:3167  campaignName */\n      0x06\n        /* \"Campaign.sol\":3182:3193  creatorName */\n      0x07\n        /* \"Campaign.sol\":2987:3204  return(... */\n      dup2\n      dup1\n      sload\n      tag_100\n      swap1\n      tag_88\n      jump\t// in\n    tag_100:\n      dup1\n      0x1f\n      add\n      0x20\n      dup1\n      swap2\n      div\n      mul\n      0x20\n      add\n      mload(0x40)\n      swap1\n      dup2\n      add\n      0x40\n      mstore\n      dup1\n      swap3\n      swap2\n      swap1\n      dup2\n      dup2\n      mstore\n      0x20\n      add\n      dup3\n      dup1\n      sload\n      tag_101\n      swap1\n      tag_88\n      jump\t// in\n    tag_101:\n      dup1\n      iszero\n      tag_102\n      jumpi\n      dup1\n      0x1f\n      lt\n      tag_103\n      jumpi\n      0x0100\n      dup1\n      dup4\n      sload\n      div\n      mul\n      dup4\n      mstore\n      swap2\n      0x20\n      add\n      swap2\n      jump(tag_102)\n    tag_103:\n      dup3\n      add\n      swap2\n      swap1\n      0x00\n      mstore\n      keccak256(0x00, 0x20)\n      swap1\n    tag_104:\n      dup2\n      sload\n      dup2\n      mstore\n      swap1\n      0x01\n      add\n      swap1\n      0x20\n      add\n      dup1\n      dup4\n      gt\n      tag_104\n      jumpi\n      dup3\n      swap1\n      sub\n      0x1f\n      and\n      dup3\n      add\n      swap2\n    tag_102:\n      pop\n      pop\n      pop\n      pop\n      pop\n      swap2\n      pop\n      dup1\n      dup1\n      sload\n      tag_105\n      swap1\n      tag_88\n      jump\t// in\n    tag_105:\n      dup1\n      0x1f\n      add\n      0x20\n      dup1\n      swap2\n      div\n      mul\n      0x20\n      add\n      mload(0x40)\n      swap1\n      dup2\n      add\n      0x40\n      mstore\n      dup1\n      swap3\n      swap2\n      swap1\n      dup2\n      dup2\n      mstore\n      0x20\n      add\n      dup3\n      dup1\n      sload\n      tag_106\n      swap1\n      tag_88\n      jump\t// in\n    tag_106:\n      dup1\n      iszero\n      tag_107\n      jumpi\n      dup1\n      0x1f\n      lt\n      tag_108\n      jumpi\n      0x0100\n      dup1\n      dup4\n      sload\n      div\n      mul\n      dup4\n      mstore\n      swap2\n      0x20\n      add\n      swap2\n      jump(tag_107)\n    tag_108:\n      dup3\n      add\n      swap2\n      swap1\n      0x00\n      mstore\n      keccak256(0x00, 0x20)\n      swap1\n    tag_109:\n      dup2\n      sload\n      dup2\n      mstore\n      swap1\n      0x01\n      add\n      swap1\n      0x20\n      add\n      dup1\n      dup4\n      gt\n      tag_109\n      jumpi\n      dup3\n      swap1\n      sub\n      0x1f\n      and\n      dup3\n      add\n      swap2\n    tag_107:\n      pop\n      pop\n      pop\n      pop\n      pop\n      swap1\n      pop\n      swap7\n      pop\n      swap7\n      pop\n      swap7\n      pop\n      swap7\n      pop\n      swap7\n      pop\n      swap7\n      pop\n      swap7\n      pop\n        /* \"Campaign.sol\":2801:3212  function getSummary() public view returns (... */\n      swap1\n      swap2\n      swap3\n      swap4\n      swap5\n      swap6\n      swap7\n      jump\t// out\n        /* \"Campaign.sol\":781:803  address public manager */\n    tag_50:\n      0x00\n      dup1\n      sload\n      swap1\n      0x0100\n      exp\n      swap1\n      div\n      0xffffffffffffffffffffffffffffffffffffffff\n      and\n      dup2\n      jump\t// out\n        /* \"Campaign.sol\":922:963  mapping (uint => Request) public requests */\n    tag_56:\n      mstore(0x20, 0x04)\n      dup1\n      0x00\n      mstore\n      keccak256(0x00, 0x40)\n      0x00\n      swap2\n      pop\n      swap1\n      pop\n      dup1\n      0x00\n      add\n      dup1\n      sload\n      tag_110\n      swap1\n      tag_88\n      jump\t// in\n    tag_110:\n      dup1\n      0x1f\n      add\n      0x20\n      dup1\n      swap2\n      div\n      mul\n      0x20\n      add\n      mload(0x40)\n      swap1\n      dup2\n      add\n      0x40\n      mstore\n      dup1\n      swap3\n      swap2\n      swap1\n      dup2\n      dup2\n      mstore\n      0x20\n      add\n      dup3\n      dup1\n      sload\n      tag_111\n      swap1\n      tag_88\n      jump\t// in\n    tag_111:\n      dup1\n      iszero\n      tag_112\n      jumpi\n      dup1\n      0x1f\n      lt\n      tag_113\n      jumpi\n      0x0100\n      dup1\n      dup4\n      sload\n      div\n      mul\n      dup4\n      mstore\n      swap2\n      0x20\n      add\n      swap2\n      jump(tag_112)\n    tag_113:\n      dup3\n      add\n      swap2\n      swap1\n      0x00\n      mstore\n      keccak256(0x00, 0x20)\n      swap1\n    tag_114:\n      dup2\n      sload\n      dup2\n      mstore\n      swap1\n      0x01\n      add\n      swap1\n      0x20\n      add\n      dup1\n      dup4\n      gt\n      tag_114\n      jumpi\n      dup3\n      swap1\n      sub\n      0x1f\n      and\n      dup3\n      add\n      swap2\n    tag_112:\n      pop\n      pop\n      pop\n      pop\n      pop\n      swap1\n      dup1\n      0x01\n      add\n      sload\n      swap1\n      dup1\n      0x02\n      add\n      0x00\n      swap1\n      sload\n      swap1\n      0x0100\n      exp\n      swap1\n      div\n      0xffffffffffffffffffffffffffffffffffffffff\n      and\n      swap1\n      dup1\n      0x02\n      add\n      0x14\n      swap1\n      sload\n      swap1\n      0x0100\n      exp\n      swap1\n      div\n      0xff\n      and\n      swap1\n      dup1\n      0x03\n      add\n      sload\n      swap1\n      pop\n      dup6\n      jump\t// out\n        /* \"Campaign.sol\":970:996  uint public approversCount */\n    tag_61:\n      sload(0x05)\n      dup2\n      jump\t// out\n        /* \"Campaign.sol\":1782:2123  function createRequest(string memory _description, uint _value, address payable _recipient) ... */\n    tag_67:\n        /* \"Campaign.sol\":1126:1133  manager */\n      0x00\n      dup1\n      sload\n      swap1\n      0x0100\n      exp\n      swap1\n      div\n      0xffffffffffffffffffffffffffffffffffffffff\n      and\n        /* \"Campaign.sol\":1112:1133  msg.sender == manager */\n      0xffffffffffffffffffffffffffffffffffffffff\n      and\n        /* \"Campaign.sol\":1112:1122  msg.sender */\n      caller\n        /* \"Campaign.sol\":1112:1133  msg.sender == manager */\n      0xffffffffffffffffffffffffffffffffffffffff\n      and\n      eq\n        /* \"Campaign.sol\":1104:1134  require(msg.sender == manager) */\n      tag_116\n      jumpi\n      0x00\n      dup1\n      revert\n    tag_116:\n        /* \"Campaign.sol\":1908:1925  Request storage r */\n      0x00\n        /* \"Campaign.sol\":1928:1936  requests */\n      0x04\n        /* \"Campaign.sol\":1928:1951  requests[numRequests++] */\n      0x00\n        /* \"Campaign.sol\":1937:1948  numRequests */\n      0x03\n      0x00\n        /* \"Campaign.sol\":1937:1950  numRequests++ */\n      dup2\n      sload\n      dup1\n      swap3\n      swap2\n      swap1\n      tag_118\n      swap1\n      tag_119\n      jump\t// in\n    tag_118:\n      swap2\n      swap1\n      pop\n      sstore\n        /* \"Campaign.sol\":1928:1951  requests[numRequests++] */\n      dup2\n      mstore\n      0x20\n      add\n      swap1\n      dup2\n      mstore\n      0x20\n      add\n      0x00\n      keccak256\n        /* \"Campaign.sol\":1908:1951  Request storage r = requests[numRequests++] */\n      swap1\n      pop\n        /* \"Campaign.sol\":1978:1990  _description */\n      dup4\n        /* \"Campaign.sol\":1962:1963  r */\n      dup2\n        /* \"Campaign.sol\":1962:1975  r.description */\n      0x00\n      add\n        /* \"Campaign.sol\":1962:1990  r.description = _description */\n      swap1\n      dup1\n      mload\n      swap1\n      0x20\n      add\n      swap1\n      tag_120\n      swap3\n      swap2\n      swap1\n      tag_121\n      jump\t// in\n    tag_120:\n      pop\n        /* \"Campaign.sol\":2011:2017  _value */\n      dup3\n        /* \"Campaign.sol\":2001:2002  r */\n      dup2\n        /* \"Campaign.sol\":2001:2008  r.value */\n      0x01\n      add\n        /* \"Campaign.sol\":2001:2017  r.value = _value */\n      dup2\n      swap1\n      sstore\n      pop\n        /* \"Campaign.sol\":2042:2052  _recipient */\n      dup2\n        /* \"Campaign.sol\":2028:2029  r */\n      dup2\n        /* \"Campaign.sol\":2028:2039  r.recipient */\n      0x02\n      add\n      0x00\n        /* \"Campaign.sol\":2028:2052  r.recipient = _recipient */\n      0x0100\n      exp\n      dup2\n      sload\n      dup2\n      0xffffffffffffffffffffffffffffffffffffffff\n      mul\n      not\n      and\n      swap1\n      dup4\n      0xffffffffffffffffffffffffffffffffffffffff\n      and\n      mul\n      or\n      swap1\n      sstore\n      pop\n        /* \"Campaign.sol\":2076:2081  false */\n      0x00\n        /* \"Campaign.sol\":2063:2064  r */\n      dup2\n        /* \"Campaign.sol\":2063:2073  r.complete */\n      0x02\n      add\n      0x14\n        /* \"Campaign.sol\":2063:2081  r.complete = false */\n      0x0100\n      exp\n      dup2\n      sload\n      dup2\n      0xff\n      mul\n      not\n      and\n      swap1\n      dup4\n      iszero\n      iszero\n      mul\n      or\n      swap1\n      sstore\n      pop\n        /* \"Campaign.sol\":2110:2111  0 */\n      0x00\n        /* \"Campaign.sol\":2092:2093  r */\n      dup2\n        /* \"Campaign.sol\":2092:2107  r.approvalCount */\n      0x03\n      add\n        /* \"Campaign.sol\":2092:2111  r.approvalCount = 0 */\n      dup2\n      swap1\n      sstore\n      pop\n        /* \"Campaign.sol\":1897:2123  {... */\n      pop\n        /* \"Campaign.sol\":1782:2123  function createRequest(string memory _description, uint _value, address payable _recipient) ... */\n      pop\n      pop\n      pop\n      jump\t// out\n        /* \"Campaign.sol\":810:841  uint public minimumContribution */\n    tag_70:\n      sload(0x01)\n      dup2\n      jump\t// out\n        /* \"Campaign.sol\":1537:1774  function contribute() public payable{... */\n    tag_73:\n        /* \"Campaign.sol\":1604:1623  minimumContribution */\n      sload(0x01)\n        /* \"Campaign.sol\":1592:1601  msg.value */\n      callvalue\n        /* \"Campaign.sol\":1592:1623  msg.value > minimumContribution */\n      gt\n        /* \"Campaign.sol\":1584:1624  require(msg.value > minimumContribution) */\n      tag_123\n      jumpi\n      0x00\n      dup1\n      revert\n    tag_123:\n        /* \"Campaign.sol\":1640:1649  approvers */\n      0x02\n        /* \"Campaign.sol\":1640:1670  approvers[payable(msg.sender)] */\n      0x00\n        /* \"Campaign.sol\":1658:1668  msg.sender */\n      caller\n        /* \"Campaign.sol\":1640:1670  approvers[payable(msg.sender)] */\n      0xffffffffffffffffffffffffffffffffffffffff\n      and\n      0xffffffffffffffffffffffffffffffffffffffff\n      and\n      dup2\n      mstore\n      0x20\n      add\n      swap1\n      dup2\n      mstore\n      0x20\n      add\n      0x00\n      keccak256\n      0x00\n      swap1\n      sload\n      swap1\n      0x0100\n      exp\n      swap1\n      div\n      0xff\n      and\n        /* \"Campaign.sol\":1635:1767  if (!approvers[payable(msg.sender)]) {... */\n      tag_124\n      jumpi\n        /* \"Campaign.sol\":1720:1724  true */\n      0x01\n        /* \"Campaign.sol\":1687:1696  approvers */\n      0x02\n        /* \"Campaign.sol\":1687:1717  approvers[payable(msg.sender)] */\n      0x00\n        /* \"Campaign.sol\":1705:1715  msg.sender */\n      caller\n        /* \"Campaign.sol\":1687:1717  approvers[payable(msg.sender)] */\n      0xffffffffffffffffffffffffffffffffffffffff\n      and\n      0xffffffffffffffffffffffffffffffffffffffff\n      and\n      dup2\n      mstore\n      0x20\n      add\n      swap1\n      dup2\n      mstore\n      0x20\n      add\n      0x00\n      keccak256\n      0x00\n        /* \"Campaign.sol\":1687:1724  approvers[payable(msg.sender)] = true */\n      0x0100\n      exp\n      dup2\n      sload\n      dup2\n      0xff\n      mul\n      not\n      and\n      swap1\n      dup4\n      iszero\n      iszero\n      mul\n      or\n      swap1\n      sstore\n      pop\n        /* \"Campaign.sol\":1739:1753  approversCount */\n      0x05\n      0x00\n        /* \"Campaign.sol\":1739:1755  approversCount++ */\n      dup2\n      sload\n      dup1\n      swap3\n      swap2\n      swap1\n      tag_125\n      swap1\n      tag_119\n      jump\t// in\n    tag_125:\n      swap2\n      swap1\n      pop\n      sstore\n      pop\n        /* \"Campaign.sol\":1635:1767  if (!approvers[payable(msg.sender)]) {... */\n    tag_124:\n        /* \"Campaign.sol\":1537:1774  function contribute() public payable{... */\n      jump\t// out\n        /* \"Campaign.sol\":2129:2484  function approveRequest(uint _index) public approved{... */\n    tag_77:\n        /* \"Campaign.sol\":1200:1209  approvers */\n      0x02\n        /* \"Campaign.sol\":1200:1221  approvers[msg.sender] */\n      0x00\n        /* \"Campaign.sol\":1210:1220  msg.sender */\n      caller\n        /* \"Campaign.sol\":1200:1221  approvers[msg.sender] */\n      0xffffffffffffffffffffffffffffffffffffffff\n      and\n      0xffffffffffffffffffffffffffffffffffffffff\n      and\n      dup2\n      mstore\n      0x20\n      add\n      swap1\n      dup2\n      mstore\n      0x20\n      add\n      0x00\n      keccak256\n      0x00\n      swap1\n      sload\n      swap1\n      0x0100\n      exp\n      swap1\n      div\n      0xff\n      and\n        /* \"Campaign.sol\":1192:1222  require(approvers[msg.sender]) */\n      tag_127\n      jumpi\n      0x00\n      dup1\n      revert\n    tag_127:\n        /* \"Campaign.sol\":2192:2215  Request storage request */\n      0x00\n        /* \"Campaign.sol\":2218:2226  requests */\n      0x04\n        /* \"Campaign.sol\":2218:2234  requests[_index] */\n      0x00\n        /* \"Campaign.sol\":2227:2233  _index */\n      dup4\n        /* \"Campaign.sol\":2218:2234  requests[_index] */\n      dup2\n      mstore\n      0x20\n      add\n      swap1\n      dup2\n      mstore\n      0x20\n      add\n      0x00\n      keccak256\n        /* \"Campaign.sol\":2192:2234  Request storage request = requests[_index] */\n      swap1\n      pop\n        /* \"Campaign.sol\":2363:2370  request */\n      dup1\n        /* \"Campaign.sol\":2363:2380  request.approvals */\n      0x04\n      add\n        /* \"Campaign.sol\":2363:2392  request.approvals[msg.sender] */\n      0x00\n        /* \"Campaign.sol\":2381:2391  msg.sender */\n      caller\n        /* \"Campaign.sol\":2363:2392  request.approvals[msg.sender] */\n      0xffffffffffffffffffffffffffffffffffffffff\n      and\n      0xffffffffffffffffffffffffffffffffffffffff\n      and\n      dup2\n      mstore\n      0x20\n      add\n      swap1\n      dup2\n      mstore\n      0x20\n      add\n      0x00\n      keccak256\n      0x00\n      swap1\n      sload\n      swap1\n      0x0100\n      exp\n      swap1\n      div\n      0xff\n      and\n        /* \"Campaign.sol\":2362:2392  !request.approvals[msg.sender] */\n      iszero\n        /* \"Campaign.sol\":2354:2393  require(!request.approvals[msg.sender]) */\n      tag_129\n      jumpi\n      0x00\n      dup1\n      revert\n    tag_129:\n        /* \"Campaign.sol\":2438:2442  true */\n      0x01\n        /* \"Campaign.sol\":2406:2413  request */\n      dup2\n        /* \"Campaign.sol\":2406:2423  request.approvals */\n      0x04\n      add\n        /* \"Campaign.sol\":2406:2435  request.approvals[msg.sender] */\n      0x00\n        /* \"Campaign.sol\":2424:2434  msg.sender */\n      caller\n        /* \"Campaign.sol\":2406:2435  request.approvals[msg.sender] */\n      0xffffffffffffffffffffffffffffffffffffffff\n      and\n      0xffffffffffffffffffffffffffffffffffffffff\n      and\n      dup2\n      mstore\n      0x20\n      add\n      swap1\n      dup2\n      mstore\n      0x20\n      add\n      0x00\n      keccak256\n      0x00\n        /* \"Campaign.sol\":2406:2442  request.approvals[msg.sender] = true */\n      0x0100\n      exp\n      dup2\n      sload\n      dup2\n      0xff\n      mul\n      not\n      and\n      swap1\n      dup4\n      iszero\n      iszero\n      mul\n      or\n      swap1\n      sstore\n      pop\n        /* \"Campaign.sol\":2453:2460  request */\n      dup1\n        /* \"Campaign.sol\":2453:2474  request.approvalCount */\n      0x03\n      add\n      0x00\n        /* \"Campaign.sol\":2453:2476  request.approvalCount++ */\n      dup2\n      sload\n      dup1\n      swap3\n      swap2\n      swap1\n      tag_130\n      swap1\n      tag_119\n      jump\t// in\n    tag_130:\n      swap2\n      swap1\n      pop\n      sstore\n      pop\n        /* \"Campaign.sol\":2181:2484  {... */\n      pop\n        /* \"Campaign.sol\":2129:2484  function approveRequest(uint _index) public approved{... */\n      pop\n      jump\t// out\n    tag_121:\n      dup3\n      dup1\n      sload\n      tag_131\n      swap1\n      tag_88\n      jump\t// in\n    tag_131:\n      swap1\n      0x00\n      mstore\n      keccak256(0x00, 0x20)\n      swap1\n      0x1f\n      add\n      0x20\n      swap1\n      div\n      dup2\n      add\n      swap3\n      dup3\n      tag_133\n      jumpi\n      0x00\n      dup6\n      sstore\n      jump(tag_132)\n    tag_133:\n      dup3\n      0x1f\n      lt\n      tag_134\n      jumpi\n      dup1\n      mload\n      not(0xff)\n      and\n      dup4\n      dup1\n      add\n      or\n      dup6\n      sstore\n      jump(tag_132)\n    tag_134:\n      dup3\n      dup1\n      add\n      0x01\n      add\n      dup6\n      sstore\n      dup3\n      iszero\n      tag_132\n      jumpi\n      swap2\n      dup3\n      add\n    tag_135:\n      dup3\n      dup2\n      gt\n      iszero\n      tag_136\n      jumpi\n      dup3\n      mload\n      dup3\n      sstore\n      swap2\n      0x20\n      add\n      swap2\n      swap1\n      0x01\n      add\n      swap1\n      jump(tag_135)\n    tag_136:\n    tag_132:\n      pop\n      swap1\n      pop\n      tag_137\n      swap2\n      swap1\n      tag_138\n      jump\t// in\n    tag_137:\n      pop\n      swap1\n      jump\t// out\n    tag_138:\n    tag_139:\n      dup1\n      dup3\n      gt\n      iszero\n      tag_140\n      jumpi\n      0x00\n      dup2\n      0x00\n      swap1\n      sstore\n      pop\n      0x01\n      add\n      jump(tag_139)\n    tag_140:\n      pop\n      swap1\n      jump\t// out\n        /* \"#utility.yul\":7:82   */\n    tag_141:\n        /* \"#utility.yul\":40:46   */\n      0x00\n        /* \"#utility.yul\":73:75   */\n      0x40\n        /* \"#utility.yul\":67:76   */\n      mload\n        /* \"#utility.yul\":57:76   */\n      swap1\n      pop\n        /* \"#utility.yul\":7:82   */\n      swap1\n      jump\t// out\n        /* \"#utility.yul\":88:205   */\n    tag_142:\n        /* \"#utility.yul\":197:198   */\n      0x00\n        /* \"#utility.yul\":194:195   */\n      dup1\n        /* \"#utility.yul\":187:199   */\n      revert\n        /* \"#utility.yul\":211:328   */\n    tag_143:\n        /* \"#utility.yul\":320:321   */\n      0x00\n        /* \"#utility.yul\":317:318   */\n      dup1\n        /* \"#utility.yul\":310:322   */\n      revert\n        /* \"#utility.yul\":334:411   */\n    tag_144:\n        /* \"#utility.yul\":371:378   */\n      0x00\n        /* \"#utility.yul\":400:405   */\n      dup2\n        /* \"#utility.yul\":389:405   */\n      swap1\n      pop\n        /* \"#utility.yul\":334:411   */\n      swap2\n      swap1\n      pop\n      jump\t// out\n        /* \"#utility.yul\":417:539   */\n    tag_145:\n        /* \"#utility.yul\":490:514   */\n      tag_182\n        /* \"#utility.yul\":508:513   */\n      dup2\n        /* \"#utility.yul\":490:514   */\n      tag_144\n      jump\t// in\n    tag_182:\n        /* \"#utility.yul\":483:488   */\n      dup2\n        /* \"#utility.yul\":480:515   */\n      eq\n        /* \"#utility.yul\":470:533   */\n      tag_183\n      jumpi\n        /* \"#utility.yul\":529:530   */\n      0x00\n        /* \"#utility.yul\":526:527   */\n      dup1\n        /* \"#utility.yul\":519:531   */\n      revert\n        /* \"#utility.yul\":470:533   */\n    tag_183:\n        /* \"#utility.yul\":417:539   */\n      pop\n      jump\t// out\n        /* \"#utility.yul\":545:684   */\n    tag_146:\n        /* \"#utility.yul\":591:596   */\n      0x00\n        /* \"#utility.yul\":629:635   */\n      dup2\n        /* \"#utility.yul\":616:636   */\n      calldataload\n        /* \"#utility.yul\":607:636   */\n      swap1\n      pop\n        /* \"#utility.yul\":645:678   */\n      tag_185\n        /* \"#utility.yul\":672:677   */\n      dup2\n        /* \"#utility.yul\":645:678   */\n      tag_145\n      jump\t// in\n    tag_185:\n        /* \"#utility.yul\":545:684   */\n      swap3\n      swap2\n      pop\n      pop\n      jump\t// out\n        /* \"#utility.yul\":690:1019   */\n    tag_20:\n        /* \"#utility.yul\":749:755   */\n      0x00\n        /* \"#utility.yul\":798:800   */\n      0x20\n        /* \"#utility.yul\":786:795   */\n      dup3\n        /* \"#utility.yul\":777:784   */\n      dup5\n        /* \"#utility.yul\":773:796   */\n      sub\n        /* \"#utility.yul\":769:801   */\n      slt\n        /* \"#utility.yul\":766:885   */\n      iszero\n      tag_187\n      jumpi\n        /* \"#utility.yul\":804:883   */\n      tag_188\n      tag_142\n      jump\t// in\n    tag_188:\n        /* \"#utility.yul\":766:885   */\n    tag_187:\n        /* \"#utility.yul\":924:925   */\n      0x00\n        /* \"#utility.yul\":949:1002   */\n      tag_189\n        /* \"#utility.yul\":994:1001   */\n      dup5\n        /* \"#utility.yul\":985:991   */\n      dup3\n        /* \"#utility.yul\":974:983   */\n      dup6\n        /* \"#utility.yul\":970:992   */\n      add\n        /* \"#utility.yul\":949:1002   */\n      tag_146\n      jump\t// in\n    tag_189:\n        /* \"#utility.yul\":939:1002   */\n      swap2\n      pop\n        /* \"#utility.yul\":895:1012   */\n      pop\n        /* \"#utility.yul\":690:1019   */\n      swap3\n      swap2\n      pop\n      pop\n      jump\t// out\n        /* \"#utility.yul\":1025:1124   */\n    tag_147:\n        /* \"#utility.yul\":1077:1083   */\n      0x00\n        /* \"#utility.yul\":1111:1116   */\n      dup2\n        /* \"#utility.yul\":1105:1117   */\n      mload\n        /* \"#utility.yul\":1095:1117   */\n      swap1\n      pop\n        /* \"#utility.yul\":1025:1124   */\n      swap2\n      swap1\n      pop\n      jump\t// out\n        /* \"#utility.yul\":1130:1299   */\n    tag_148:\n        /* \"#utility.yul\":1214:1225   */\n      0x00\n        /* \"#utility.yul\":1248:1254   */\n      dup3\n        /* \"#utility.yul\":1243:1246   */\n      dup3\n        /* \"#utility.yul\":1236:1255   */\n      mstore\n        /* \"#utility.yul\":1288:1292   */\n      0x20\n        /* \"#utility.yul\":1283:1286   */\n      dup3\n        /* \"#utility.yul\":1279:1293   */\n      add\n        /* \"#utility.yul\":1264:1293   */\n      swap1\n      pop\n        /* \"#utility.yul\":1130:1299   */\n      swap3\n      swap2\n      pop\n      pop\n      jump\t// out\n        /* \"#utility.yul\":1305:1612   */\n    tag_149:\n        /* \"#utility.yul\":1373:1374   */\n      0x00\n        /* \"#utility.yul\":1383:1496   */\n    tag_193:\n        /* \"#utility.yul\":1397:1403   */\n      dup4\n        /* \"#utility.yul\":1394:1395   */\n      dup2\n        /* \"#utility.yul\":1391:1404   */\n      lt\n        /* \"#utility.yul\":1383:1496   */\n      iszero\n      tag_195\n      jumpi\n        /* \"#utility.yul\":1482:1483   */\n      dup1\n        /* \"#utility.yul\":1477:1480   */\n      dup3\n        /* \"#utility.yul\":1473:1484   */\n      add\n        /* \"#utility.yul\":1467:1485   */\n      mload\n        /* \"#utility.yul\":1463:1464   */\n      dup2\n        /* \"#utility.yul\":1458:1461   */\n      dup5\n        /* \"#utility.yul\":1454:1465   */\n      add\n        /* \"#utility.yul\":1447:1486   */\n      mstore\n        /* \"#utility.yul\":1419:1421   */\n      0x20\n        /* \"#utility.yul\":1416:1417   */\n      dup2\n        /* \"#utility.yul\":1412:1422   */\n      add\n        /* \"#utility.yul\":1407:1422   */\n      swap1\n      pop\n        /* \"#utility.yul\":1383:1496   */\n      jump(tag_193)\n    tag_195:\n        /* \"#utility.yul\":1514:1520   */\n      dup4\n        /* \"#utility.yul\":1511:1512   */\n      dup2\n        /* \"#utility.yul\":1508:1521   */\n      gt\n        /* \"#utility.yul\":1505:1606   */\n      iszero\n      tag_196\n      jumpi\n        /* \"#utility.yul\":1594:1595   */\n      0x00\n        /* \"#utility.yul\":1585:1591   */\n      dup5\n        /* \"#utility.yul\":1580:1583   */\n      dup5\n        /* \"#utility.yul\":1576:1592   */\n      add\n        /* \"#utility.yul\":1569:1596   */\n      mstore\n        /* \"#utility.yul\":1505:1606   */\n    tag_196:\n        /* \"#utility.yul\":1354:1612   */\n      pop\n        /* \"#utility.yul\":1305:1612   */\n      pop\n      pop\n      pop\n      jump\t// out\n        /* \"#utility.yul\":1618:1720   */\n    tag_150:\n        /* \"#utility.yul\":1659:1665   */\n      0x00\n        /* \"#utility.yul\":1710:1712   */\n      0x1f\n        /* \"#utility.yul\":1706:1713   */\n      not\n        /* \"#utility.yul\":1701:1703   */\n      0x1f\n        /* \"#utility.yul\":1694:1699   */\n      dup4\n        /* \"#utility.yul\":1690:1704   */\n      add\n        /* \"#utility.yul\":1686:1714   */\n      and\n        /* \"#utility.yul\":1676:1714   */\n      swap1\n      pop\n        /* \"#utility.yul\":1618:1720   */\n      swap2\n      swap1\n      pop\n      jump\t// out\n        /* \"#utility.yul\":1726:2090   */\n    tag_151:\n        /* \"#utility.yul\":1814:1817   */\n      0x00\n        /* \"#utility.yul\":1842:1881   */\n      tag_199\n        /* \"#utility.yul\":1875:1880   */\n      dup3\n        /* \"#utility.yul\":1842:1881   */\n      tag_147\n      jump\t// in\n    tag_199:\n        /* \"#utility.yul\":1897:1968   */\n      tag_200\n        /* \"#utility.yul\":1961:1967   */\n      dup2\n        /* \"#utility.yul\":1956:1959   */\n      dup6\n        /* \"#utility.yul\":1897:1968   */\n      tag_148\n      jump\t// in\n    tag_200:\n        /* \"#utility.yul\":1890:1968   */\n      swap4\n      pop\n        /* \"#utility.yul\":1977:2029   */\n      tag_201\n        /* \"#utility.yul\":2022:2028   */\n      dup2\n        /* \"#utility.yul\":2017:2020   */\n      dup6\n        /* \"#utility.yul\":2010:2014   */\n      0x20\n        /* \"#utility.yul\":2003:2008   */\n      dup7\n        /* \"#utility.yul\":1999:2015   */\n      add\n        /* \"#utility.yul\":1977:2029   */\n      tag_149\n      jump\t// in\n    tag_201:\n        /* \"#utility.yul\":2054:2083   */\n      tag_202\n        /* \"#utility.yul\":2076:2082   */\n      dup2\n        /* \"#utility.yul\":2054:2083   */\n      tag_150\n      jump\t// in\n    tag_202:\n        /* \"#utility.yul\":2049:2052   */\n      dup5\n        /* \"#utility.yul\":2045:2084   */\n      add\n        /* \"#utility.yul\":2038:2084   */\n      swap2\n      pop\n        /* \"#utility.yul\":1818:2090   */\n      pop\n        /* \"#utility.yul\":1726:2090   */\n      swap3\n      swap2\n      pop\n      pop\n      jump\t// out\n        /* \"#utility.yul\":2096:2409   */\n    tag_26:\n        /* \"#utility.yul\":2209:2213   */\n      0x00\n        /* \"#utility.yul\":2247:2249   */\n      0x20\n        /* \"#utility.yul\":2236:2245   */\n      dup3\n        /* \"#utility.yul\":2232:2250   */\n      add\n        /* \"#utility.yul\":2224:2250   */\n      swap1\n      pop\n        /* \"#utility.yul\":2296:2305   */\n      dup2\n        /* \"#utility.yul\":2290:2294   */\n      dup2\n        /* \"#utility.yul\":2286:2306   */\n      sub\n        /* \"#utility.yul\":2282:2283   */\n      0x00\n        /* \"#utility.yul\":2271:2280   */\n      dup4\n        /* \"#utility.yul\":2267:2284   */\n      add\n        /* \"#utility.yul\":2260:2307   */\n      mstore\n        /* \"#utility.yul\":2324:2402   */\n      tag_204\n        /* \"#utility.yul\":2397:2401   */\n      dup2\n        /* \"#utility.yul\":2388:2394   */\n      dup5\n        /* \"#utility.yul\":2324:2402   */\n      tag_151\n      jump\t// in\n    tag_204:\n        /* \"#utility.yul\":2316:2402   */\n      swap1\n      pop\n        /* \"#utility.yul\":2096:2409   */\n      swap3\n      swap2\n      pop\n      pop\n      jump\t// out\n        /* \"#utility.yul\":2415:2541   */\n    tag_152:\n        /* \"#utility.yul\":2452:2459   */\n      0x00\n        /* \"#utility.yul\":2492:2534   */\n      0xffffffffffffffffffffffffffffffffffffffff\n        /* \"#utility.yul\":2485:2490   */\n      dup3\n        /* \"#utility.yul\":2481:2535   */\n      and\n        /* \"#utility.yul\":2470:2535   */\n      swap1\n      pop\n        /* \"#utility.yul\":2415:2541   */\n      swap2\n      swap1\n      pop\n      jump\t// out\n        /* \"#utility.yul\":2547:2643   */\n    tag_153:\n        /* \"#utility.yul\":2584:2591   */\n      0x00\n        /* \"#utility.yul\":2613:2637   */\n      tag_207\n        /* \"#utility.yul\":2631:2636   */\n      dup3\n        /* \"#utility.yul\":2613:2637   */\n      tag_152\n      jump\t// in\n    tag_207:\n        /* \"#utility.yul\":2602:2637   */\n      swap1\n      pop\n        /* \"#utility.yul\":2547:2643   */\n      swap2\n      swap1\n      pop\n      jump\t// out\n        /* \"#utility.yul\":2649:2771   */\n    tag_154:\n        /* \"#utility.yul\":2722:2746   */\n      tag_209\n        /* \"#utility.yul\":2740:2745   */\n      dup2\n        /* \"#utility.yul\":2722:2746   */\n      tag_153\n      jump\t// in\n    tag_209:\n        /* \"#utility.yul\":2715:2720   */\n      dup2\n        /* \"#utility.yul\":2712:2747   */\n      eq\n        /* \"#utility.yul\":2702:2765   */\n      tag_210\n      jumpi\n        /* \"#utility.yul\":2761:2762   */\n      0x00\n        /* \"#utility.yul\":2758:2759   */\n      dup1\n        /* \"#utility.yul\":2751:2763   */\n      revert\n        /* \"#utility.yul\":2702:2765   */\n    tag_210:\n        /* \"#utility.yul\":2649:2771   */\n      pop\n      jump\t// out\n        /* \"#utility.yul\":2777:2916   */\n    tag_155:\n        /* \"#utility.yul\":2823:2828   */\n      0x00\n        /* \"#utility.yul\":2861:2867   */\n      dup2\n        /* \"#utility.yul\":2848:2868   */\n      calldataload\n        /* \"#utility.yul\":2839:2868   */\n      swap1\n      pop\n        /* \"#utility.yul\":2877:2910   */\n      tag_212\n        /* \"#utility.yul\":2904:2909   */\n      dup2\n        /* \"#utility.yul\":2877:2910   */\n      tag_154\n      jump\t// in\n    tag_212:\n        /* \"#utility.yul\":2777:2916   */\n      swap3\n      swap2\n      pop\n      pop\n      jump\t// out\n        /* \"#utility.yul\":2922:3251   */\n    tag_30:\n        /* \"#utility.yul\":2981:2987   */\n      0x00\n        /* \"#utility.yul\":3030:3032   */\n      0x20\n        /* \"#utility.yul\":3018:3027   */\n      dup3\n        /* \"#utility.yul\":3009:3016   */\n      dup5\n        /* \"#utility.yul\":3005:3028   */\n      sub\n        /* \"#utility.yul\":3001:3033   */\n      slt\n        /* \"#utility.yul\":2998:3117   */\n      iszero\n      tag_214\n      jumpi\n        /* \"#utility.yul\":3036:3115   */\n      tag_215\n      tag_142\n      jump\t// in\n    tag_215:\n        /* \"#utility.yul\":2998:3117   */\n    tag_214:\n        /* \"#utility.yul\":3156:3157   */\n      0x00\n        /* \"#utility.yul\":3181:3234   */\n      tag_216\n        /* \"#utility.yul\":3226:3233   */\n      dup5\n        /* \"#utility.yul\":3217:3223   */\n      dup3\n        /* \"#utility.yul\":3206:3215   */\n      dup6\n        /* \"#utility.yul\":3202:3224   */\n      add\n        /* \"#utility.yul\":3181:3234   */\n      tag_155\n      jump\t// in\n    tag_216:\n        /* \"#utility.yul\":3171:3234   */\n      swap2\n      pop\n        /* \"#utility.yul\":3127:3244   */\n      pop\n        /* \"#utility.yul\":2922:3251   */\n      swap3\n      swap2\n      pop\n      pop\n      jump\t// out\n        /* \"#utility.yul\":3257:3347   */\n    tag_156:\n        /* \"#utility.yul\":3291:3298   */\n      0x00\n        /* \"#utility.yul\":3334:3339   */\n      dup2\n        /* \"#utility.yul\":3327:3340   */\n      iszero\n        /* \"#utility.yul\":3320:3341   */\n      iszero\n        /* \"#utility.yul\":3309:3341   */\n      swap1\n      pop\n        /* \"#utility.yul\":3257:3347   */\n      swap2\n      swap1\n      pop\n      jump\t// out\n        /* \"#utility.yul\":3353:3462   */\n    tag_157:\n        /* \"#utility.yul\":3434:3455   */\n      tag_219\n        /* \"#utility.yul\":3449:3454   */\n      dup2\n        /* \"#utility.yul\":3434:3455   */\n      tag_156\n      jump\t// in\n    tag_219:\n        /* \"#utility.yul\":3429:3432   */\n      dup3\n        /* \"#utility.yul\":3422:3456   */\n      mstore\n        /* \"#utility.yul\":3353:3462   */\n      pop\n      pop\n      jump\t// out\n        /* \"#utility.yul\":3468:3678   */\n    tag_33:\n        /* \"#utility.yul\":3555:3559   */\n      0x00\n        /* \"#utility.yul\":3593:3595   */\n      0x20\n        /* \"#utility.yul\":3582:3591   */\n      dup3\n        /* \"#utility.yul\":3578:3596   */\n      add\n        /* \"#utility.yul\":3570:3596   */\n      swap1\n      pop\n        /* \"#utility.yul\":3606:3671   */\n      tag_221\n        /* \"#utility.yul\":3668:3669   */\n      0x00\n        /* \"#utility.yul\":3657:3666   */\n      dup4\n        /* \"#utility.yul\":3653:3670   */\n      add\n        /* \"#utility.yul\":3644:3650   */\n      dup5\n        /* \"#utility.yul\":3606:3671   */\n      tag_157\n      jump\t// in\n    tag_221:\n        /* \"#utility.yul\":3468:3678   */\n      swap3\n      swap2\n      pop\n      pop\n      jump\t// out\n        /* \"#utility.yul\":3684:3802   */\n    tag_158:\n        /* \"#utility.yul\":3771:3795   */\n      tag_223\n        /* \"#utility.yul\":3789:3794   */\n      dup2\n        /* \"#utility.yul\":3771:3795   */\n      tag_144\n      jump\t// in\n    tag_223:\n        /* \"#utility.yul\":3766:3769   */\n      dup3\n        /* \"#utility.yul\":3759:3796   */\n      mstore\n        /* \"#utility.yul\":3684:3802   */\n      pop\n      pop\n      jump\t// out\n        /* \"#utility.yul\":3808:4030   */\n    tag_42:\n        /* \"#utility.yul\":3901:3905   */\n      0x00\n        /* \"#utility.yul\":3939:3941   */\n      0x20\n        /* \"#utility.yul\":3928:3937   */\n      dup3\n        /* \"#utility.yul\":3924:3942   */\n      add\n        /* \"#utility.yul\":3916:3942   */\n      swap1\n      pop\n        /* \"#utility.yul\":3952:4023   */\n      tag_225\n        /* \"#utility.yul\":4020:4021   */\n      0x00\n        /* \"#utility.yul\":4009:4018   */\n      dup4\n        /* \"#utility.yul\":4005:4022   */\n      add\n        /* \"#utility.yul\":3996:4002   */\n      dup5\n        /* \"#utility.yul\":3952:4023   */\n      tag_158\n      jump\t// in\n    tag_225:\n        /* \"#utility.yul\":3808:4030   */\n      swap3\n      swap2\n      pop\n      pop\n      jump\t// out\n        /* \"#utility.yul\":4036:4154   */\n    tag_159:\n        /* \"#utility.yul\":4123:4147   */\n      tag_227\n        /* \"#utility.yul\":4141:4146   */\n      dup2\n        /* \"#utility.yul\":4123:4147   */\n      tag_153\n      jump\t// in\n    tag_227:\n        /* \"#utility.yul\":4118:4121   */\n      dup3\n        /* \"#utility.yul\":4111:4148   */\n      mstore\n        /* \"#utility.yul\":4036:4154   */\n      pop\n      pop\n      jump\t// out\n        /* \"#utility.yul\":4160:5228   */\n    tag_47:\n        /* \"#utility.yul\":4461:4465   */\n      0x00\n        /* \"#utility.yul\":4499:4502   */\n      0xe0\n        /* \"#utility.yul\":4488:4497   */\n      dup3\n        /* \"#utility.yul\":4484:4503   */\n      add\n        /* \"#utility.yul\":4476:4503   */\n      swap1\n      pop\n        /* \"#utility.yul\":4513:4584   */\n      tag_229\n        /* \"#utility.yul\":4581:4582   */\n      0x00\n        /* \"#utility.yul\":4570:4579   */\n      dup4\n        /* \"#utility.yul\":4566:4583   */\n      add\n        /* \"#utility.yul\":4557:4563   */\n      dup11\n        /* \"#utility.yul\":4513:4584   */\n      tag_158\n      jump\t// in\n    tag_229:\n        /* \"#utility.yul\":4594:4666   */\n      tag_230\n        /* \"#utility.yul\":4662:4664   */\n      0x20\n        /* \"#utility.yul\":4651:4660   */\n      dup4\n        /* \"#utility.yul\":4647:4665   */\n      add\n        /* \"#utility.yul\":4638:4644   */\n      dup10\n        /* \"#utility.yul\":4594:4666   */\n      tag_158\n      jump\t// in\n    tag_230:\n        /* \"#utility.yul\":4676:4748   */\n      tag_231\n        /* \"#utility.yul\":4744:4746   */\n      0x40\n        /* \"#utility.yul\":4733:4742   */\n      dup4\n        /* \"#utility.yul\":4729:4747   */\n      add\n        /* \"#utility.yul\":4720:4726   */\n      dup9\n        /* \"#utility.yul\":4676:4748   */\n      tag_158\n      jump\t// in\n    tag_231:\n        /* \"#utility.yul\":4758:4830   */\n      tag_232\n        /* \"#utility.yul\":4826:4828   */\n      0x60\n        /* \"#utility.yul\":4815:4824   */\n      dup4\n        /* \"#utility.yul\":4811:4829   */\n      add\n        /* \"#utility.yul\":4802:4808   */\n      dup8\n        /* \"#utility.yul\":4758:4830   */\n      tag_158\n      jump\t// in\n    tag_232:\n        /* \"#utility.yul\":4840:4913   */\n      tag_233\n        /* \"#utility.yul\":4908:4911   */\n      0x80\n        /* \"#utility.yul\":4897:4906   */\n      dup4\n        /* \"#utility.yul\":4893:4912   */\n      add\n        /* \"#utility.yul\":4884:4890   */\n      dup7\n        /* \"#utility.yul\":4840:4913   */\n      tag_159\n      jump\t// in\n    tag_233:\n        /* \"#utility.yul\":4961:4970   */\n      dup2\n        /* \"#utility.yul\":4955:4959   */\n      dup2\n        /* \"#utility.yul\":4951:4971   */\n      sub\n        /* \"#utility.yul\":4945:4948   */\n      0xa0\n        /* \"#utility.yul\":4934:4943   */\n      dup4\n        /* \"#utility.yul\":4930:4949   */\n      add\n        /* \"#utility.yul\":4923:4972   */\n      mstore\n        /* \"#utility.yul\":4989:5067   */\n      tag_234\n        /* \"#utility.yul\":5062:5066   */\n      dup2\n        /* \"#utility.yul\":5053:5059   */\n      dup6\n        /* \"#utility.yul\":4989:5067   */\n      tag_151\n      jump\t// in\n    tag_234:\n        /* \"#utility.yul\":4981:5067   */\n      swap1\n      pop\n        /* \"#utility.yul\":5115:5124   */\n      dup2\n        /* \"#utility.yul\":5109:5113   */\n      dup2\n        /* \"#utility.yul\":5105:5125   */\n      sub\n        /* \"#utility.yul\":5099:5102   */\n      0xc0\n        /* \"#utility.yul\":5088:5097   */\n      dup4\n        /* \"#utility.yul\":5084:5103   */\n      add\n        /* \"#utility.yul\":5077:5126   */\n      mstore\n        /* \"#utility.yul\":5143:5221   */\n      tag_235\n        /* \"#utility.yul\":5216:5220   */\n      dup2\n        /* \"#utility.yul\":5207:5213   */\n      dup5\n        /* \"#utility.yul\":5143:5221   */\n      tag_151\n      jump\t// in\n    tag_235:\n        /* \"#utility.yul\":5135:5221   */\n      swap1\n      pop\n        /* \"#utility.yul\":4160:5228   */\n      swap9\n      swap8\n      pop\n      pop\n      pop\n      pop\n      pop\n      pop\n      pop\n      pop\n      jump\t// out\n        /* \"#utility.yul\":5234:5456   */\n    tag_52:\n        /* \"#utility.yul\":5327:5331   */\n      0x00\n        /* \"#utility.yul\":5365:5367   */\n      0x20\n        /* \"#utility.yul\":5354:5363   */\n      dup3\n        /* \"#utility.yul\":5350:5368   */\n      add\n        /* \"#utility.yul\":5342:5368   */\n      swap1\n      pop\n        /* \"#utility.yul\":5378:5449   */\n      tag_237\n        /* \"#utility.yul\":5446:5447   */\n      0x00\n        /* \"#utility.yul\":5435:5444   */\n      dup4\n        /* \"#utility.yul\":5431:5448   */\n      add\n        /* \"#utility.yul\":5422:5428   */\n      dup5\n        /* \"#utility.yul\":5378:5449   */\n      tag_159\n      jump\t// in\n    tag_237:\n        /* \"#utility.yul\":5234:5456   */\n      swap3\n      swap2\n      pop\n      pop\n      jump\t// out\n        /* \"#utility.yul\":5462:5566   */\n    tag_160:\n        /* \"#utility.yul\":5507:5514   */\n      0x00\n        /* \"#utility.yul\":5536:5560   */\n      tag_239\n        /* \"#utility.yul\":5554:5559   */\n      dup3\n        /* \"#utility.yul\":5536:5560   */\n      tag_152\n      jump\t// in\n    tag_239:\n        /* \"#utility.yul\":5525:5560   */\n      swap1\n      pop\n        /* \"#utility.yul\":5462:5566   */\n      swap2\n      swap1\n      pop\n      jump\t// out\n        /* \"#utility.yul\":5572:5714   */\n    tag_161:\n        /* \"#utility.yul\":5675:5707   */\n      tag_241\n        /* \"#utility.yul\":5701:5706   */\n      dup2\n        /* \"#utility.yul\":5675:5707   */\n      tag_160\n      jump\t// in\n    tag_241:\n        /* \"#utility.yul\":5670:5673   */\n      dup3\n        /* \"#utility.yul\":5663:5708   */\n      mstore\n        /* \"#utility.yul\":5572:5714   */\n      pop\n      pop\n      jump\t// out\n        /* \"#utility.yul\":5720:6495   */\n    tag_58:\n        /* \"#utility.yul\":5955:5959   */\n      0x00\n        /* \"#utility.yul\":5993:5996   */\n      0xa0\n        /* \"#utility.yul\":5982:5991   */\n      dup3\n        /* \"#utility.yul\":5978:5997   */\n      add\n        /* \"#utility.yul\":5970:5997   */\n      swap1\n      pop\n        /* \"#utility.yul\":6043:6052   */\n      dup2\n        /* \"#utility.yul\":6037:6041   */\n      dup2\n        /* \"#utility.yul\":6033:6053   */\n      sub\n        /* \"#utility.yul\":6029:6030   */\n      0x00\n        /* \"#utility.yul\":6018:6027   */\n      dup4\n        /* \"#utility.yul\":6014:6031   */\n      add\n        /* \"#utility.yul\":6007:6054   */\n      mstore\n        /* \"#utility.yul\":6071:6149   */\n      tag_243\n        /* \"#utility.yul\":6144:6148   */\n      dup2\n        /* \"#utility.yul\":6135:6141   */\n      dup9\n        /* \"#utility.yul\":6071:6149   */\n      tag_151\n      jump\t// in\n    tag_243:\n        /* \"#utility.yul\":6063:6149   */\n      swap1\n      pop\n        /* \"#utility.yul\":6159:6231   */\n      tag_244\n        /* \"#utility.yul\":6227:6229   */\n      0x20\n        /* \"#utility.yul\":6216:6225   */\n      dup4\n        /* \"#utility.yul\":6212:6230   */\n      add\n        /* \"#utility.yul\":6203:6209   */\n      dup8\n        /* \"#utility.yul\":6159:6231   */\n      tag_158\n      jump\t// in\n    tag_244:\n        /* \"#utility.yul\":6241:6329   */\n      tag_245\n        /* \"#utility.yul\":6325:6327   */\n      0x40\n        /* \"#utility.yul\":6314:6323   */\n      dup4\n        /* \"#utility.yul\":6310:6328   */\n      add\n        /* \"#utility.yul\":6301:6307   */\n      dup7\n        /* \"#utility.yul\":6241:6329   */\n      tag_161\n      jump\t// in\n    tag_245:\n        /* \"#utility.yul\":6339:6405   */\n      tag_246\n        /* \"#utility.yul\":6401:6403   */\n      0x60\n        /* \"#utility.yul\":6390:6399   */\n      dup4\n        /* \"#utility.yul\":6386:6404   */\n      add\n        /* \"#utility.yul\":6377:6383   */\n      dup6\n        /* \"#utility.yul\":6339:6405   */\n      tag_157\n      jump\t// in\n    tag_246:\n        /* \"#utility.yul\":6415:6488   */\n      tag_247\n        /* \"#utility.yul\":6483:6486   */\n      0x80\n        /* \"#utility.yul\":6472:6481   */\n      dup4\n        /* \"#utility.yul\":6468:6487   */\n      add\n        /* \"#utility.yul\":6459:6465   */\n      dup5\n        /* \"#utility.yul\":6415:6488   */\n      tag_158\n      jump\t// in\n    tag_247:\n        /* \"#utility.yul\":5720:6495   */\n      swap7\n      swap6\n      pop\n      pop\n      pop\n      pop\n      pop\n      pop\n      jump\t// out\n        /* \"#utility.yul\":6501:6618   */\n    tag_162:\n        /* \"#utility.yul\":6610:6611   */\n      0x00\n        /* \"#utility.yul\":6607:6608   */\n      dup1\n        /* \"#utility.yul\":6600:6612   */\n      revert\n        /* \"#utility.yul\":6624:6741   */\n    tag_163:\n        /* \"#utility.yul\":6733:6734   */\n      0x00\n        /* \"#utility.yul\":6730:6731   */\n      dup1\n        /* \"#utility.yul\":6723:6735   */\n      revert\n        /* \"#utility.yul\":6747:6927   */\n    tag_164:\n        /* \"#utility.yul\":6795:6872   */\n      0x4e487b7100000000000000000000000000000000000000000000000000000000\n        /* \"#utility.yul\":6792:6793   */\n      0x00\n        /* \"#utility.yul\":6785:6873   */\n      mstore\n        /* \"#utility.yul\":6892:6896   */\n      0x41\n        /* \"#utility.yul\":6889:6890   */\n      0x04\n        /* \"#utility.yul\":6882:6897   */\n      mstore\n        /* \"#utility.yul\":6916:6920   */\n      0x24\n        /* \"#utility.yul\":6913:6914   */\n      0x00\n        /* \"#utility.yul\":6906:6921   */\n      revert\n        /* \"#utility.yul\":6933:7214   */\n    tag_165:\n        /* \"#utility.yul\":7016:7043   */\n      tag_252\n        /* \"#utility.yul\":7038:7042   */\n      dup3\n        /* \"#utility.yul\":7016:7043   */\n      tag_150\n      jump\t// in\n    tag_252:\n        /* \"#utility.yul\":7008:7014   */\n      dup2\n        /* \"#utility.yul\":7004:7044   */\n      add\n        /* \"#utility.yul\":7146:7152   */\n      dup2\n        /* \"#utility.yul\":7134:7144   */\n      dup2\n        /* \"#utility.yul\":7131:7153   */\n      lt\n        /* \"#utility.yul\":7110:7128   */\n      0xffffffffffffffff\n        /* \"#utility.yul\":7098:7108   */\n      dup3\n        /* \"#utility.yul\":7095:7129   */\n      gt\n        /* \"#utility.yul\":7092:7154   */\n      or\n        /* \"#utility.yul\":7089:7177   */\n      iszero\n      tag_253\n      jumpi\n        /* \"#utility.yul\":7157:7175   */\n      tag_254\n      tag_164\n      jump\t// in\n    tag_254:\n        /* \"#utility.yul\":7089:7177   */\n    tag_253:\n        /* \"#utility.yul\":7197:7207   */\n      dup1\n        /* \"#utility.yul\":7193:7195   */\n      0x40\n        /* \"#utility.yul\":7186:7208   */\n      mstore\n        /* \"#utility.yul\":6976:7214   */\n      pop\n        /* \"#utility.yul\":6933:7214   */\n      pop\n      pop\n      jump\t// out\n        /* \"#utility.yul\":7220:7349   */\n    tag_166:\n        /* \"#utility.yul\":7254:7260   */\n      0x00\n        /* \"#utility.yul\":7281:7301   */\n      tag_256\n      tag_141\n      jump\t// in\n    tag_256:\n        /* \"#utility.yul\":7271:7301   */\n      swap1\n      pop\n        /* \"#utility.yul\":7310:7343   */\n      tag_257\n        /* \"#utility.yul\":7338:7342   */\n      dup3\n        /* \"#utility.yul\":7330:7336   */\n      dup3\n        /* \"#utility.yul\":7310:7343   */\n      tag_165\n      jump\t// in\n    tag_257:\n        /* \"#utility.yul\":7220:7349   */\n      swap2\n      swap1\n      pop\n      jump\t// out\n        /* \"#utility.yul\":7355:7663   */\n    tag_167:\n        /* \"#utility.yul\":7417:7421   */\n      0x00\n        /* \"#utility.yul\":7507:7525   */\n      0xffffffffffffffff\n        /* \"#utility.yul\":7499:7505   */\n      dup3\n        /* \"#utility.yul\":7496:7526   */\n      gt\n        /* \"#utility.yul\":7493:7549   */\n      iszero\n      tag_259\n      jumpi\n        /* \"#utility.yul\":7529:7547   */\n      tag_260\n      tag_164\n      jump\t// in\n    tag_260:\n        /* \"#utility.yul\":7493:7549   */\n    tag_259:\n        /* \"#utility.yul\":7567:7596   */\n      tag_261\n        /* \"#utility.yul\":7589:7595   */\n      dup3\n        /* \"#utility.yul\":7567:7596   */\n      tag_150\n      jump\t// in\n    tag_261:\n        /* \"#utility.yul\":7559:7596   */\n      swap1\n      pop\n        /* \"#utility.yul\":7651:7655   */\n      0x20\n        /* \"#utility.yul\":7645:7649   */\n      dup2\n        /* \"#utility.yul\":7641:7656   */\n      add\n        /* \"#utility.yul\":7633:7656   */\n      swap1\n      pop\n        /* \"#utility.yul\":7355:7663   */\n      swap2\n      swap1\n      pop\n      jump\t// out\n        /* \"#utility.yul\":7669:7823   */\n    tag_168:\n        /* \"#utility.yul\":7753:7759   */\n      dup3\n        /* \"#utility.yul\":7748:7751   */\n      dup2\n        /* \"#utility.yul\":7743:7746   */\n      dup4\n        /* \"#utility.yul\":7730:7760   */\n      calldatacopy\n        /* \"#utility.yul\":7815:7816   */\n      0x00\n        /* \"#utility.yul\":7806:7812   */\n      dup4\n        /* \"#utility.yul\":7801:7804   */\n      dup4\n        /* \"#utility.yul\":7797:7813   */\n      add\n        /* \"#utility.yul\":7790:7817   */\n      mstore\n        /* \"#utility.yul\":7669:7823   */\n      pop\n      pop\n      pop\n      jump\t// out\n        /* \"#utility.yul\":7829:8241   */\n    tag_169:\n        /* \"#utility.yul\":7907:7912   */\n      0x00\n        /* \"#utility.yul\":7932:7998   */\n      tag_264\n        /* \"#utility.yul\":7948:7997   */\n      tag_265\n        /* \"#utility.yul\":7990:7996   */\n      dup5\n        /* \"#utility.yul\":7948:7997   */\n      tag_167\n      jump\t// in\n    tag_265:\n        /* \"#utility.yul\":7932:7998   */\n      tag_166\n      jump\t// in\n    tag_264:\n        /* \"#utility.yul\":7923:7998   */\n      swap1\n      pop\n        /* \"#utility.yul\":8021:8027   */\n      dup3\n        /* \"#utility.yul\":8014:8019   */\n      dup2\n        /* \"#utility.yul\":8007:8028   */\n      mstore\n        /* \"#utility.yul\":8059:8063   */\n      0x20\n        /* \"#utility.yul\":8052:8057   */\n      dup2\n        /* \"#utility.yul\":8048:8064   */\n      add\n        /* \"#utility.yul\":8097:8100   */\n      dup5\n        /* \"#utility.yul\":8088:8094   */\n      dup5\n        /* \"#utility.yul\":8083:8086   */\n      dup5\n        /* \"#utility.yul\":8079:8095   */\n      add\n        /* \"#utility.yul\":8076:8101   */\n      gt\n        /* \"#utility.yul\":8073:8185   */\n      iszero\n      tag_266\n      jumpi\n        /* \"#utility.yul\":8104:8183   */\n      tag_267\n      tag_163\n      jump\t// in\n    tag_267:\n        /* \"#utility.yul\":8073:8185   */\n    tag_266:\n        /* \"#utility.yul\":8194:8235   */\n      tag_268\n        /* \"#utility.yul\":8228:8234   */\n      dup5\n        /* \"#utility.yul\":8223:8226   */\n      dup3\n        /* \"#utility.yul\":8218:8221   */\n      dup6\n        /* \"#utility.yul\":8194:8235   */\n      tag_168\n      jump\t// in\n    tag_268:\n        /* \"#utility.yul\":7913:8241   */\n      pop\n        /* \"#utility.yul\":7829:8241   */\n      swap4\n      swap3\n      pop\n      pop\n      pop\n      jump\t// out\n        /* \"#utility.yul\":8261:8601   */\n    tag_170:\n        /* \"#utility.yul\":8317:8322   */\n      0x00\n        /* \"#utility.yul\":8366:8369   */\n      dup3\n        /* \"#utility.yul\":8359:8363   */\n      0x1f\n        /* \"#utility.yul\":8351:8357   */\n      dup4\n        /* \"#utility.yul\":8347:8364   */\n      add\n        /* \"#utility.yul\":8343:8370   */\n      slt\n        /* \"#utility.yul\":8333:8455   */\n      tag_270\n      jumpi\n        /* \"#utility.yul\":8374:8453   */\n      tag_271\n      tag_162\n      jump\t// in\n    tag_271:\n        /* \"#utility.yul\":8333:8455   */\n    tag_270:\n        /* \"#utility.yul\":8491:8497   */\n      dup2\n        /* \"#utility.yul\":8478:8498   */\n      calldataload\n        /* \"#utility.yul\":8516:8595   */\n      tag_272\n        /* \"#utility.yul\":8591:8594   */\n      dup5\n        /* \"#utility.yul\":8583:8589   */\n      dup3\n        /* \"#utility.yul\":8576:8580   */\n      0x20\n        /* \"#utility.yul\":8568:8574   */\n      dup7\n        /* \"#utility.yul\":8564:8581   */\n      add\n        /* \"#utility.yul\":8516:8595   */\n      tag_169\n      jump\t// in\n    tag_272:\n        /* \"#utility.yul\":8507:8595   */\n      swap2\n      pop\n        /* \"#utility.yul\":8323:8601   */\n      pop\n        /* \"#utility.yul\":8261:8601   */\n      swap3\n      swap2\n      pop\n      pop\n      jump\t// out\n        /* \"#utility.yul\":8607:8745   */\n    tag_171:\n        /* \"#utility.yul\":8688:8720   */\n      tag_274\n        /* \"#utility.yul\":8714:8719   */\n      dup2\n        /* \"#utility.yul\":8688:8720   */\n      tag_160\n      jump\t// in\n    tag_274:\n        /* \"#utility.yul\":8681:8686   */\n      dup2\n        /* \"#utility.yul\":8678:8721   */\n      eq\n        /* \"#utility.yul\":8668:8739   */\n      tag_275\n      jumpi\n        /* \"#utility.yul\":8735:8736   */\n      0x00\n        /* \"#utility.yul\":8732:8733   */\n      dup1\n        /* \"#utility.yul\":8725:8737   */\n      revert\n        /* \"#utility.yul\":8668:8739   */\n    tag_275:\n        /* \"#utility.yul\":8607:8745   */\n      pop\n      jump\t// out\n        /* \"#utility.yul\":8751:8906   */\n    tag_172:\n        /* \"#utility.yul\":8805:8810   */\n      0x00\n        /* \"#utility.yul\":8843:8849   */\n      dup2\n        /* \"#utility.yul\":8830:8850   */\n      calldataload\n        /* \"#utility.yul\":8821:8850   */\n      swap1\n      pop\n        /* \"#utility.yul\":8859:8900   */\n      tag_277\n        /* \"#utility.yul\":8894:8899   */\n      dup2\n        /* \"#utility.yul\":8859:8900   */\n      tag_171\n      jump\t// in\n    tag_277:\n        /* \"#utility.yul\":8751:8906   */\n      swap3\n      swap2\n      pop\n      pop\n      jump\t// out\n        /* \"#utility.yul\":8912:9727   */\n    tag_66:\n        /* \"#utility.yul\":9007:9013   */\n      0x00\n        /* \"#utility.yul\":9015:9021   */\n      dup1\n        /* \"#utility.yul\":9023:9029   */\n      0x00\n        /* \"#utility.yul\":9072:9074   */\n      0x60\n        /* \"#utility.yul\":9060:9069   */\n      dup5\n        /* \"#utility.yul\":9051:9058   */\n      dup7\n        /* \"#utility.yul\":9047:9070   */\n      sub\n        /* \"#utility.yul\":9043:9075   */\n      slt\n        /* \"#utility.yul\":9040:9159   */\n      iszero\n      tag_279\n      jumpi\n        /* \"#utility.yul\":9078:9157   */\n      tag_280\n      tag_142\n      jump\t// in\n    tag_280:\n        /* \"#utility.yul\":9040:9159   */\n    tag_279:\n        /* \"#utility.yul\":9226:9227   */\n      0x00\n        /* \"#utility.yul\":9215:9224   */\n      dup5\n        /* \"#utility.yul\":9211:9228   */\n      add\n        /* \"#utility.yul\":9198:9229   */\n      calldataload\n        /* \"#utility.yul\":9256:9274   */\n      0xffffffffffffffff\n        /* \"#utility.yul\":9248:9254   */\n      dup2\n        /* \"#utility.yul\":9245:9275   */\n      gt\n        /* \"#utility.yul\":9242:9359   */\n      iszero\n      tag_281\n      jumpi\n        /* \"#utility.yul\":9278:9357   */\n      tag_282\n      tag_143\n      jump\t// in\n    tag_282:\n        /* \"#utility.yul\":9242:9359   */\n    tag_281:\n        /* \"#utility.yul\":9383:9446   */\n      tag_283\n        /* \"#utility.yul\":9438:9445   */\n      dup7\n        /* \"#utility.yul\":9429:9435   */\n      dup3\n        /* \"#utility.yul\":9418:9427   */\n      dup8\n        /* \"#utility.yul\":9414:9436   */\n      add\n        /* \"#utility.yul\":9383:9446   */\n      tag_170\n      jump\t// in\n    tag_283:\n        /* \"#utility.yul\":9373:9446   */\n      swap4\n      pop\n        /* \"#utility.yul\":9169:9456   */\n      pop\n        /* \"#utility.yul\":9495:9497   */\n      0x20\n        /* \"#utility.yul\":9521:9574   */\n      tag_284\n        /* \"#utility.yul\":9566:9573   */\n      dup7\n        /* \"#utility.yul\":9557:9563   */\n      dup3\n        /* \"#utility.yul\":9546:9555   */\n      dup8\n        /* \"#utility.yul\":9542:9564   */\n      add\n        /* \"#utility.yul\":9521:9574   */\n      tag_146\n      jump\t// in\n    tag_284:\n        /* \"#utility.yul\":9511:9574   */\n      swap3\n      pop\n        /* \"#utility.yul\":9466:9584   */\n      pop\n        /* \"#utility.yul\":9623:9625   */\n      0x40\n        /* \"#utility.yul\":9649:9710   */\n      tag_285\n        /* \"#utility.yul\":9702:9709   */\n      dup7\n        /* \"#utility.yul\":9693:9699   */\n      dup3\n        /* \"#utility.yul\":9682:9691   */\n      dup8\n        /* \"#utility.yul\":9678:9700   */\n      add\n        /* \"#utility.yul\":9649:9710   */\n      tag_172\n      jump\t// in\n    tag_285:\n        /* \"#utility.yul\":9639:9710   */\n      swap2\n      pop\n        /* \"#utility.yul\":9594:9720   */\n      pop\n        /* \"#utility.yul\":8912:9727   */\n      swap3\n      pop\n      swap3\n      pop\n      swap3\n      jump\t// out\n        /* \"#utility.yul\":9733:9913   */\n    tag_173:\n        /* \"#utility.yul\":9781:9858   */\n      0x4e487b7100000000000000000000000000000000000000000000000000000000\n        /* \"#utility.yul\":9778:9779   */\n      0x00\n        /* \"#utility.yul\":9771:9859   */\n      mstore\n        /* \"#utility.yul\":9878:9882   */\n      0x12\n        /* \"#utility.yul\":9875:9876   */\n      0x04\n        /* \"#utility.yul\":9868:9883   */\n      mstore\n        /* \"#utility.yul\":9902:9906   */\n      0x24\n        /* \"#utility.yul\":9899:9900   */\n      0x00\n        /* \"#utility.yul\":9892:9907   */\n      revert\n        /* \"#utility.yul\":9919:10099   */\n    tag_174:\n        /* \"#utility.yul\":9967:10044   */\n      0x4e487b7100000000000000000000000000000000000000000000000000000000\n        /* \"#utility.yul\":9964:9965   */\n      0x00\n        /* \"#utility.yul\":9957:10045   */\n      mstore\n        /* \"#utility.yul\":10064:10068   */\n      0x11\n        /* \"#utility.yul\":10061:10062   */\n      0x04\n        /* \"#utility.yul\":10054:10069   */\n      mstore\n        /* \"#utility.yul\":10088:10092   */\n      0x24\n        /* \"#utility.yul\":10085:10086   */\n      0x00\n        /* \"#utility.yul\":10078:10093   */\n      revert\n        /* \"#utility.yul\":10105:10290   */\n    tag_83:\n        /* \"#utility.yul\":10145:10146   */\n      0x00\n        /* \"#utility.yul\":10162:10182   */\n      tag_289\n        /* \"#utility.yul\":10180:10181   */\n      dup3\n        /* \"#utility.yul\":10162:10182   */\n      tag_144\n      jump\t// in\n    tag_289:\n        /* \"#utility.yul\":10157:10182   */\n      swap2\n      pop\n        /* \"#utility.yul\":10196:10216   */\n      tag_290\n        /* \"#utility.yul\":10214:10215   */\n      dup4\n        /* \"#utility.yul\":10196:10216   */\n      tag_144\n      jump\t// in\n    tag_290:\n        /* \"#utility.yul\":10191:10216   */\n      swap3\n      pop\n        /* \"#utility.yul\":10235:10236   */\n      dup3\n        /* \"#utility.yul\":10225:10260   */\n      tag_291\n      jumpi\n        /* \"#utility.yul\":10240:10258   */\n      tag_292\n      tag_173\n      jump\t// in\n    tag_292:\n        /* \"#utility.yul\":10225:10260   */\n    tag_291:\n        /* \"#utility.yul\":10282:10283   */\n      dup3\n        /* \"#utility.yul\":10279:10280   */\n      dup3\n        /* \"#utility.yul\":10275:10284   */\n      div\n        /* \"#utility.yul\":10270:10284   */\n      swap1\n      pop\n        /* \"#utility.yul\":10105:10290   */\n      swap3\n      swap2\n      pop\n      pop\n      jump\t// out\n        /* \"#utility.yul\":10296:10476   */\n    tag_175:\n        /* \"#utility.yul\":10344:10421   */\n      0x4e487b7100000000000000000000000000000000000000000000000000000000\n        /* \"#utility.yul\":10341:10342   */\n      0x00\n        /* \"#utility.yul\":10334:10422   */\n      mstore\n        /* \"#utility.yul\":10441:10445   */\n      0x22\n        /* \"#utility.yul\":10438:10439   */\n      0x04\n        /* \"#utility.yul\":10431:10446   */\n      mstore\n        /* \"#utility.yul\":10465:10469   */\n      0x24\n        /* \"#utility.yul\":10462:10463   */\n      0x00\n        /* \"#utility.yul\":10455:10470   */\n      revert\n        /* \"#utility.yul\":10482:10802   */\n    tag_88:\n        /* \"#utility.yul\":10526:10532   */\n      0x00\n        /* \"#utility.yul\":10563:10564   */\n      0x02\n        /* \"#utility.yul\":10557:10561   */\n      dup3\n        /* \"#utility.yul\":10553:10565   */\n      div\n        /* \"#utility.yul\":10543:10565   */\n      swap1\n      pop\n        /* \"#utility.yul\":10610:10611   */\n      0x01\n        /* \"#utility.yul\":10604:10608   */\n      dup3\n        /* \"#utility.yul\":10600:10612   */\n      and\n        /* \"#utility.yul\":10631:10649   */\n      dup1\n        /* \"#utility.yul\":10621:10702   */\n      tag_295\n      jumpi\n        /* \"#utility.yul\":10687:10691   */\n      0x7f\n        /* \"#utility.yul\":10679:10685   */\n      dup3\n        /* \"#utility.yul\":10675:10692   */\n      and\n        /* \"#utility.yul\":10665:10692   */\n      swap2\n      pop\n        /* \"#utility.yul\":10621:10702   */\n    tag_295:\n        /* \"#utility.yul\":10749:10751   */\n      0x20\n        /* \"#utility.yul\":10741:10747   */\n      dup3\n        /* \"#utility.yul\":10738:10752   */\n      lt\n        /* \"#utility.yul\":10718:10736   */\n      dup2\n        /* \"#utility.yul\":10715:10753   */\n      eq\n        /* \"#utility.yul\":10712:10796   */\n      iszero\n      tag_296\n      jumpi\n        /* \"#utility.yul\":10768:10786   */\n      tag_297\n      tag_175\n      jump\t// in\n    tag_297:\n        /* \"#utility.yul\":10712:10796   */\n    tag_296:\n        /* \"#utility.yul\":10533:10802   */\n      pop\n        /* \"#utility.yul\":10482:10802   */\n      swap2\n      swap1\n      pop\n      jump\t// out\n        /* \"#utility.yul\":10808:11041   */\n    tag_119:\n        /* \"#utility.yul\":10847:10850   */\n      0x00\n        /* \"#utility.yul\":10870:10894   */\n      tag_299\n        /* \"#utility.yul\":10888:10893   */\n      dup3\n        /* \"#utility.yul\":10870:10894   */\n      tag_144\n      jump\t// in\n    tag_299:\n        /* \"#utility.yul\":10861:10894   */\n      swap2\n      pop\n        /* \"#utility.yul\":10916:10982   */\n      0xffffffffffffffffffffffffffffffffffffffffffffffffffffffffffffffff\n        /* \"#utility.yul\":10909:10914   */\n      dup3\n        /* \"#utility.yul\":10906:10983   */\n      eq\n        /* \"#utility.yul\":10903:11006   */\n      iszero\n      tag_300\n      jumpi\n        /* \"#utility.yul\":10986:11004   */\n      tag_301\n      tag_174\n      jump\t// in\n    tag_301:\n        /* \"#utility.yul\":10903:11006   */\n    tag_300:\n        /* \"#utility.yul\":11033:11034   */\n      0x01\n        /* \"#utility.yul\":11026:11031   */\n      dup3\n        /* \"#utility.yul\":11022:11035   */\n      add\n        /* \"#utility.yul\":11015:11035   */\n      swap1\n      pop\n        /* \"#utility.yul\":10808:11041   */\n      swap2\n      swap1\n      pop\n      jump\t// out\n\n    auxdata: 0xa264697066735822122037447b38d6ba0ac9962b68a75002b0010f10317223bbc011342646fe0c9fbae264736f6c634300080b0033\n}\n","bytecode":{"linkReferences":{},"object":"608060405260006003553480156200001657600080fd5b50604051620017193803806200171983398181016040528101906200003c9190620003ac565b826000806101000a81548173ffffffffffffffffffffffffffffffffffffffff021916908373ffffffffffffffffffffffffffffffffffffffff1602179055508360018190555081600690805190602001906200009b929190620000bf565b508060079080519060200190620000b4929190620000bf565b5050505050620004c1565b828054620000cd906200048b565b90600052602060002090601f016020900481019282620000f157600085556200013d565b82601f106200010c57805160ff19168380011785556200013d565b828001600101855582156200013d579182015b828111156200013c5782518255916020019190600101906200011f565b5b5090506200014c919062000150565b5090565b5b808211156200016b57600081600090555060010162000151565b5090565b6000604051905090565b600080fd5b600080fd5b6000819050919050565b620001988162000183565b8114620001a457600080fd5b50565b600081519050620001b8816200018d565b92915050565b600073ffffffffffffffffffffffffffffffffffffffff82169050919050565b6000620001eb82620001be565b9050919050565b620001fd81620001de565b81146200020957600080fd5b50565b6000815190506200021d81620001f2565b92915050565b600080fd5b600080fd5b6000601f19601f8301169050919050565b7f4e487b7100000000000000000000000000000000000000000000000000000000600052604160045260246000fd5b62000278826200022d565b810181811067ffffffffffffffff821117156200029a57620002996200023e565b5b80604052505050565b6000620002af6200016f565b9050620002bd82826200026d565b919050565b600067ffffffffffffffff821115620002e057620002df6200023e565b5b620002eb826200022d565b9050602081019050919050565b60005b8381101562000318578082015181840152602081019050620002fb565b8381111562000328576000848401525b50505050565b6000620003456200033f84620002c2565b620002a3565b90508281526020810184848401111562000364576200036362000228565b5b62000371848285620002f8565b509392505050565b600082601f83011262000391576200039062000223565b5b8151620003a38482602086016200032e565b91505092915050565b60008060008060808587031215620003c957620003c862000179565b5b6000620003d987828801620001a7565b9450506020620003ec878288016200020c565b935050604085015167ffffffffffffffff81111562000410576200040f6200017e565b5b6200041e8782880162000379565b925050606085015167ffffffffffffffff8111156200044257620004416200017e565b5b620004508782880162000379565b91505092959194509250565b7f4e487b7100000000000000000000000000000000000000000000000000000000600052602260045260246000fd5b60006002820490506001821680620004a457607f821691505b60208210811415620004bb57620004ba6200045c565b5b50919050565b61124880620004d16000396000f3fe6080604052600436106100c25760003560e01c8063481c6a751161007f5780638a9cfd55116100595780638a9cfd5514610276578063937e09b11461029f578063d7bb99ba146102ca578063d7d1bbdb146102d4576100c2565b8063481c6a75146101df57806381d12c581461020a57806382fde0931461024b576100c2565b806303441006146100c75780630724fda9146100f05780630a1443911461011b5780631f6f90bd146101585780633410452a146101835780634051ddac146101ae575b600080fd5b3480156100d357600080fd5b506100ee60048036038101906100e99190610c14565b6102fd565b005b3480156100fc57600080fd5b50610105610436565b6040516101129190610cda565b60405180910390f35b34801561012757600080fd5b50610142600480360381019061013d9190610d5a565b6104c4565b60405161014f9190610da2565b60405180910390f35b34801561016457600080fd5b5061016d6104e4565b60405161017a9190610cda565b60405180910390f35b34801561018f57600080fd5b50610198610572565b6040516101a59190610dcc565b60405180910390f35b3480156101ba57600080fd5b506101c361057c565b6040516101d69796959493929190610df6565b60405180910390f35b3480156101eb57600080fd5b506101f46106e5565b6040516102019190610e73565b60405180910390f35b34801561021657600080fd5b50610231600480360381019061022c9190610c14565b610709565b604051610242959493929190610eaf565b60405180910390f35b34801561025757600080fd5b506102606107f4565b60405161026d9190610dcc565b60405180910390f35b34801561028257600080fd5b5061029d6004803603810190610298919061106a565b6107fa565b005b3480156102ab57600080fd5b506102b4610911565b6040516102c19190610dcc565b60405180910390f35b6102d2610917565b005b3480156102e057600080fd5b506102fb60048036038101906102f69190610c14565b6109e9565b005b60008054906101000a900473ffffffffffffffffffffffffffffffffffffffff1673ffffffffffffffffffffffffffffffffffffffff163373ffffffffffffffffffffffffffffffffffffffff161461035557600080fd5b60006004600083815260200190815260200160002090508060020160149054906101000a900460ff161561038857600080fd5b60026005546103979190611137565b8160030154116103a657600080fd5b8060020160009054906101000a900473ffffffffffffffffffffffffffffffffffffffff1673ffffffffffffffffffffffffffffffffffffffff166108fc82600101549081150290604051600060405180830381858888f19350505050158015610414573d6000803e3d6000fd5b5060018160020160146101000a81548160ff0219169083151502179055505050565b6006805461044390611197565b80601f016020809104026020016040519081016040528092919081815260200182805461046f90611197565b80156104bc5780601f10610491576101008083540402835291602001916104bc565b820191906000526020600020905b81548152906001019060200180831161049f57829003601f168201915b505050505081565b60026020528060005260406000206000915054906101000a900460ff1681565b600780546104f190611197565b80601f016020809104026020016040519081016040528092919081815260200182805461051d90611197565b801561056a5780601f1061053f5761010080835404028352916020019161056a565b820191906000526020600020905b81548152906001019060200180831161054d57829003601f168201915b505050505081565b6000600354905090565b60008060008060006060806001544760035460055460008054906101000a900473ffffffffffffffffffffffffffffffffffffffff16600660078180546105c290611197565b80601f01602080910402602001604051908101604052809291908181526020018280546105ee90611197565b801561063b5780601f106106105761010080835404028352916020019161063b565b820191906000526020600020905b81548152906001019060200180831161061e57829003601f168201915b5050505050915080805461064e90611197565b80601f016020809104026020016040519081016040528092919081815260200182805461067a90611197565b80156106c75780601f1061069c576101008083540402835291602001916106c7565b820191906000526020600020905b8154815290600101906020018083116106aa57829003601f168201915b50505050509050965096509650965096509650965090919293949596565b60008054906101000a900473ffffffffffffffffffffffffffffffffffffffff1681565b600460205280600052604060002060009150905080600001805461072c90611197565b80601f016020809104026020016040519081016040528092919081815260200182805461075890611197565b80156107a55780601f1061077a576101008083540402835291602001916107a5565b820191906000526020600020905b81548152906001019060200180831161078857829003601f168201915b5050505050908060010154908060020160009054906101000a900473ffffffffffffffffffffffffffffffffffffffff16908060020160149054906101000a900460ff16908060030154905085565b60055481565b60008054906101000a900473ffffffffffffffffffffffffffffffffffffffff1673ffffffffffffffffffffffffffffffffffffffff163373ffffffffffffffffffffffffffffffffffffffff161461085257600080fd5b6000600460006003600081548092919061086b906111c9565b919050558152602001908152602001600020905083816000019080519060200190610897929190610b27565b50828160010181905550818160020160006101000a81548173ffffffffffffffffffffffffffffffffffffffff021916908373ffffffffffffffffffffffffffffffffffffffff16021790555060008160020160146101000a81548160ff0219169083151502179055506000816003018190555050505050565b60015481565b600154341161092557600080fd5b600260003373ffffffffffffffffffffffffffffffffffffffff1673ffffffffffffffffffffffffffffffffffffffff16815260200190815260200160002060009054906101000a900460ff166109e7576001600260003373ffffffffffffffffffffffffffffffffffffffff1673ffffffffffffffffffffffffffffffffffffffff16815260200190815260200160002060006101000a81548160ff021916908315150217905550600560008154809291906109e1906111c9565b91905055505b565b600260003373ffffffffffffffffffffffffffffffffffffffff1673ffffffffffffffffffffffffffffffffffffffff16815260200190815260200160002060009054906101000a900460ff16610a3f57600080fd5b60006004600083815260200190815260200160002090508060040160003373ffffffffffffffffffffffffffffffffffffffff1673ffffffffffffffffffffffffffffffffffffffff16815260200190815260200160002060009054906101000a900460ff1615610aaf57600080fd5b60018160040160003373ffffffffffffffffffffffffffffffffffffffff1673ffffffffffffffffffffffffffffffffffffffff16815260200190815260200160002060006101000a81548160ff021916908315150217905550806003016000815480929190610b1e906111c9565b91905055505050565b828054610b3390611197565b90600052602060002090601f016020900481019282610b555760008555610b9c565b82601f10610b6e57805160ff1916838001178555610b9c565b82800160010185558215610b9c579182015b82811115610b9b578251825591602001919060010190610b80565b5b509050610ba99190610bad565b5090565b5b80821115610bc6576000816000905550600101610bae565b5090565b6000604051905090565b600080fd5b600080fd5b6000819050919050565b610bf181610bde565b8114610bfc57600080fd5b50565b600081359050610c0e81610be8565b92915050565b600060208284031215610c2a57610c29610bd4565b5b6000610c3884828501610bff565b91505092915050565b600081519050919050565b600082825260208201905092915050565b60005b83811015610c7b578082015181840152602081019050610c60565b83811115610c8a576000848401525b50505050565b6000601f19601f8301169050919050565b6000610cac82610c41565b610cb68185610c4c565b9350610cc6818560208601610c5d565b610ccf81610c90565b840191505092915050565b60006020820190508181036000830152610cf48184610ca1565b905092915050565b600073ffffffffffffffffffffffffffffffffffffffff82169050919050565b6000610d2782610cfc565b9050919050565b610d3781610d1c565b8114610d4257600080fd5b50565b600081359050610d5481610d2e565b92915050565b600060208284031215610d7057610d6f610bd4565b5b6000610d7e84828501610d45565b91505092915050565b60008115159050919050565b610d9c81610d87565b82525050565b6000602082019050610db76000830184610d93565b92915050565b610dc681610bde565b82525050565b6000602082019050610de16000830184610dbd565b92915050565b610df081610d1c565b82525050565b600060e082019050610e0b600083018a610dbd565b610e186020830189610dbd565b610e256040830188610dbd565b610e326060830187610dbd565b610e3f6080830186610de7565b81810360a0830152610e518185610ca1565b905081810360c0830152610e658184610ca1565b905098975050505050505050565b6000602082019050610e886000830184610de7565b92915050565b6000610e9982610cfc565b9050919050565b610ea981610e8e565b82525050565b600060a0820190508181036000830152610ec98188610ca1565b9050610ed86020830187610dbd565b610ee56040830186610ea0565b610ef26060830185610d93565b610eff6080830184610dbd565b9695505050505050565b600080fd5b600080fd5b7f4e487b7100000000000000000000000000000000000000000000000000000000600052604160045260246000fd5b610f4b82610c90565b810181811067ffffffffffffffff82111715610f6a57610f69610f13565b5b80604052505050565b6000610f7d610bca565b9050610f898282610f42565b919050565b600067ffffffffffffffff821115610fa957610fa8610f13565b5b610fb282610c90565b9050602081019050919050565b82818337600083830152505050565b6000610fe1610fdc84610f8e565b610f73565b905082815260208101848484011115610ffd57610ffc610f0e565b5b611008848285610fbf565b509392505050565b600082601f83011261102557611024610f09565b5b8135611035848260208601610fce565b91505092915050565b61104781610e8e565b811461105257600080fd5b50565b6000813590506110648161103e565b92915050565b60008060006060848603121561108357611082610bd4565b5b600084013567ffffffffffffffff8111156110a1576110a0610bd9565b5b6110ad86828701611010565b93505060206110be86828701610bff565b92505060406110cf86828701611055565b9150509250925092565b7f4e487b7100000000000000000000000000000000000000000000000000000000600052601260045260246000fd5b7f4e487b7100000000000000000000000000000000000000000000000000000000600052601160045260246000fd5b600061114282610bde565b915061114d83610bde565b92508261115d5761115c6110d9565b5b828204905092915050565b7f4e487b7100000000000000000000000000000000000000000000000000000000600052602260045260246000fd5b600060028204905060018216806111af57607f821691505b602082108114156111c3576111c2611168565b5b50919050565b60006111d482610bde565b91507fffffffffffffffffffffffffffffffffffffffffffffffffffffffffffffffff82141561120757611206611108565b5b60018201905091905056fea264697066735822122037447b38d6ba0ac9962b68a75002b0010f10317223bbc011342646fe0c9fbae264736f6c634300080b0033","opcodes":"PUSH1 0x80 PUSH1 0x40 MSTORE PUSH1 0x0 PUSH1 0x3 SSTORE CALLVALUE DUP1 ISZERO PUSH3 0x16 JUMPI PUSH1 0x0 DUP1 REVERT JUMPDEST POP PUSH1 0x40 MLOAD PUSH3 0x1719 CODESIZE SUB DUP1 PUSH3 0x1719 DUP4 CODECOPY DUP2 DUP2 ADD PUSH1 0x40 MSTORE DUP2 ADD SWAP1 PUSH3 0x3C SWAP2 SWAP1 PUSH3 0x3AC JUMP JUMPDEST DUP3 PUSH1 0x0 DUP1 PUSH2 0x100 EXP DUP2 SLOAD DUP2 PUSH20 0xFFFFFFFFFFFFFFFFFFFFFFFFFFFFFFFFFFFFFFFF MUL NOT AND SWAP1 DUP4 PUSH20 0xFFFFFFFFFFFFFFFFFFFFFFFFFFFFFFFFFFFFFFFF AND MUL OR SWAP1 SSTORE POP DUP4 PUSH1 0x1 DUP2 SWAP1 SSTORE POP DUP2 PUSH1 0x6 SWAP1 DUP1 MLOAD SWAP1 PUSH1 0x20 ADD SWAP1 PUSH3 0x9B SWAP3 SWAP2 SWAP1 PUSH3 0xBF JUMP JUMPDEST POP DUP1 PUSH1 0x7 SWAP1 DUP1 MLOAD SWAP1 PUSH1 0x20 ADD SWAP1 PUSH3 0xB4 SWAP3 SWAP2 SWAP1 PUSH3 0xBF JUMP JUMPDEST POP POP POP POP POP PUSH3 0x4C1 JUMP JUMPDEST DUP3 DUP1 SLOAD PUSH3 0xCD SWAP1 PUSH3 0x48B JUMP JUMPDEST SWAP1 PUSH1 0x0 MSTORE PUSH1 0x20 PUSH1 0x0 KECCAK256 SWAP1 PUSH1 0x1F ADD PUSH1 0x20 SWAP1 DIV DUP2 ADD SWAP3 DUP3 PUSH3 0xF1 JUMPI PUSH1 0x0 DUP6 SSTORE PUSH3 0x13D JUMP JUMPDEST DUP3 PUSH1 0x1F LT PUSH3 0x10C JUMPI DUP1 MLOAD PUSH1 0xFF NOT AND DUP4 DUP1 ADD OR DUP6 SSTORE PUSH3 0x13D JUMP JUMPDEST DUP3 DUP1 ADD PUSH1 0x1 ADD DUP6 SSTORE DUP3 ISZERO PUSH3 0x13D JUMPI SWAP2 DUP3 ADD JUMPDEST DUP3 DUP2 GT ISZERO PUSH3 0x13C JUMPI DUP3 MLOAD DUP3 SSTORE SWAP2 PUSH1 0x20 ADD SWAP2 SWAP1 PUSH1 0x1 ADD SWAP1 PUSH3 0x11F JUMP JUMPDEST JUMPDEST POP SWAP1 POP PUSH3 0x14C SWAP2 SWAP1 PUSH3 0x150 JUMP JUMPDEST POP SWAP1 JUMP JUMPDEST JUMPDEST DUP1 DUP3 GT ISZERO PUSH3 0x16B JUMPI PUSH1 0x0 DUP2 PUSH1 0x0 SWAP1 SSTORE POP PUSH1 0x1 ADD PUSH3 0x151 JUMP JUMPDEST POP SWAP1 JUMP JUMPDEST PUSH1 0x0 PUSH1 0x40 MLOAD SWAP1 POP SWAP1 JUMP JUMPDEST PUSH1 0x0 DUP1 REVERT JUMPDEST PUSH1 0x0 DUP1 REVERT JUMPDEST PUSH1 0x0 DUP2 SWAP1 POP SWAP2 SWAP1 POP JUMP JUMPDEST PUSH3 0x198 DUP2 PUSH3 0x183 JUMP JUMPDEST DUP2 EQ PUSH3 0x1A4 JUMPI PUSH1 0x0 DUP1 REVERT JUMPDEST POP JUMP JUMPDEST PUSH1 0x0 DUP2 MLOAD SWAP1 POP PUSH3 0x1B8 DUP2 PUSH3 0x18D JUMP JUMPDEST SWAP3 SWAP2 POP POP JUMP JUMPDEST PUSH1 0x0 PUSH20 0xFFFFFFFFFFFFFFFFFFFFFFFFFFFFFFFFFFFFFFFF DUP3 AND SWAP1 POP SWAP2 SWAP1 POP JUMP JUMPDEST PUSH1 0x0 PUSH3 0x1EB DUP3 PUSH3 0x1BE JUMP JUMPDEST SWAP1 POP SWAP2 SWAP1 POP JUMP JUMPDEST PUSH3 0x1FD DUP2 PUSH3 0x1DE JUMP JUMPDEST DUP2 EQ PUSH3 0x209 JUMPI PUSH1 0x0 DUP1 REVERT JUMPDEST POP JUMP JUMPDEST PUSH1 0x0 DUP2 MLOAD SWAP1 POP PUSH3 0x21D DUP2 PUSH3 0x1F2 JUMP JUMPDEST SWAP3 SWAP2 POP POP JUMP JUMPDEST PUSH1 0x0 DUP1 REVERT JUMPDEST PUSH1 0x0 DUP1 REVERT JUMPDEST PUSH1 0x0 PUSH1 0x1F NOT PUSH1 0x1F DUP4 ADD AND SWAP1 POP SWAP2 SWAP1 POP JUMP JUMPDEST PUSH32 0x4E487B7100000000000000000000000000000000000000000000000000000000 PUSH1 0x0 MSTORE PUSH1 0x41 PUSH1 0x4 MSTORE PUSH1 0x24 PUSH1 0x0 REVERT JUMPDEST PUSH3 0x278 DUP3 PUSH3 0x22D JUMP JUMPDEST DUP2 ADD DUP2 DUP2 LT PUSH8 0xFFFFFFFFFFFFFFFF DUP3 GT OR ISZERO PUSH3 0x29A JUMPI PUSH3 0x299 PUSH3 0x23E JUMP JUMPDEST JUMPDEST DUP1 PUSH1 0x40 MSTORE POP POP POP JUMP JUMPDEST PUSH1 0x0 PUSH3 0x2AF PUSH3 0x16F JUMP JUMPDEST SWAP1 POP PUSH3 0x2BD DUP3 DUP3 PUSH3 0x26D JUMP JUMPDEST SWAP2 SWAP1 POP JUMP JUMPDEST PUSH1 0x0 PUSH8 0xFFFFFFFFFFFFFFFF DUP3 GT ISZERO PUSH3 0x2E0 JUMPI PUSH3 0x2DF PUSH3 0x23E JUMP JUMPDEST JUMPDEST PUSH3 0x2EB DUP3 PUSH3 0x22D JUMP JUMPDEST SWAP1 POP PUSH1 0x20 DUP2 ADD SWAP1 POP SWAP2 SWAP1 POP JUMP JUMPDEST PUSH1 0x0 JUMPDEST DUP4 DUP2 LT ISZERO PUSH3 0x318 JUMPI DUP1 DUP3 ADD MLOAD DUP2 DUP5 ADD MSTORE PUSH1 0x20 DUP2 ADD SWAP1 POP PUSH3 0x2FB JUMP JUMPDEST DUP4 DUP2 GT ISZERO PUSH3 0x328 JUMPI PUSH1 0x0 DUP5 DUP5 ADD MSTORE JUMPDEST POP POP POP POP JUMP JUMPDEST PUSH1 0x0 PUSH3 0x345 PUSH3 0x33F DUP5 PUSH3 0x2C2 JUMP JUMPDEST PUSH3 0x2A3 JUMP JUMPDEST SWAP1 POP DUP3 DUP2 MSTORE PUSH1 0x20 DUP2 ADD DUP5 DUP5 DUP5 ADD GT ISZERO PUSH3 0x364 JUMPI PUSH3 0x363 PUSH3 0x228 JUMP JUMPDEST JUMPDEST PUSH3 0x371 DUP5 DUP3 DUP6 PUSH3 0x2F8 JUMP JUMPDEST POP SWAP4 SWAP3 POP POP POP JUMP JUMPDEST PUSH1 0x0 DUP3 PUSH1 0x1F DUP4 ADD SLT PUSH3 0x391 JUMPI PUSH3 0x390 PUSH3 0x223 JUMP JUMPDEST JUMPDEST DUP2 MLOAD PUSH3 0x3A3 DUP5 DUP3 PUSH1 0x20 DUP7 ADD PUSH3 0x32E JUMP JUMPDEST SWAP2 POP POP SWAP3 SWAP2 POP POP JUMP JUMPDEST PUSH1 0x0 DUP1 PUSH1 0x0 DUP1 PUSH1 0x80 DUP6 DUP8 SUB SLT ISZERO PUSH3 0x3C9 JUMPI PUSH3 0x3C8 PUSH3 0x179 JUMP JUMPDEST JUMPDEST PUSH1 0x0 PUSH3 0x3D9 DUP8 DUP3 DUP9 ADD PUSH3 0x1A7 JUMP JUMPDEST SWAP5 POP POP PUSH1 0x20 PUSH3 0x3EC DUP8 DUP3 DUP9 ADD PUSH3 0x20C JUMP JUMPDEST SWAP4 POP POP PUSH1 0x40 DUP6 ADD MLOAD PUSH8 0xFFFFFFFFFFFFFFFF DUP2 GT ISZERO PUSH3 0x410 JUMPI PUSH3 0x40F PUSH3 0x17E JUMP JUMPDEST JUMPDEST PUSH3 0x41E DUP8 DUP3 DUP9 ADD PUSH3 0x379 JUMP JUMPDEST SWAP3 POP POP PUSH1 0x60 DUP6 ADD MLOAD PUSH8 0xFFFFFFFFFFFFFFFF DUP2 GT ISZERO PUSH3 0x442 JUMPI PUSH3 0x441 PUSH3 0x17E JUMP JUMPDEST JUMPDEST PUSH3 0x450 DUP8 DUP3 DUP9 ADD PUSH3 0x379 JUMP JUMPDEST SWAP2 POP POP SWAP3 SWAP6 SWAP2 SWAP5 POP SWAP3 POP JUMP JUMPDEST PUSH32 0x4E487B7100000000000000000000000000000000000000000000000000000000 PUSH1 0x0 MSTORE PUSH1 0x22 PUSH1 0x4 MSTORE PUSH1 0x24 PUSH1 0x0 REVERT JUMPDEST PUSH1 0x0 PUSH1 0x2 DUP3 DIV SWAP1 POP PUSH1 0x1 DUP3 AND DUP1 PUSH3 0x4A4 JUMPI PUSH1 0x7F DUP3 AND SWAP2 POP JUMPDEST PUSH1 0x20 DUP3 LT DUP2 EQ ISZERO PUSH3 0x4BB JUMPI PUSH3 0x4BA PUSH3 0x45C JUMP JUMPDEST JUMPDEST POP SWAP2 SWAP1 POP JUMP JUMPDEST PUSH2 0x1248 DUP1 PUSH3 0x4D1 PUSH1 0x0 CODECOPY PUSH1 0x0 RETURN INVALID PUSH1 0x80 PUSH1 0x40 MSTORE PUSH1 0x4 CALLDATASIZE LT PUSH2 0xC2 JUMPI PUSH1 0x0 CALLDATALOAD PUSH1 0xE0 SHR DUP1 PUSH4 0x481C6A75 GT PUSH2 0x7F JUMPI DUP1 PUSH4 0x8A9CFD55 GT PUSH2 0x59 JUMPI DUP1 PUSH4 0x8A9CFD55 EQ PUSH2 0x276 JUMPI DUP1 PUSH4 0x937E09B1 EQ PUSH2 0x29F JUMPI DUP1 PUSH4 0xD7BB99BA EQ PUSH2 0x2CA JUMPI DUP1 PUSH4 0xD7D1BBDB EQ PUSH2 0x2D4 JUMPI PUSH2 0xC2 JUMP JUMPDEST DUP1 PUSH4 0x481C6A75 EQ PUSH2 0x1DF JUMPI DUP1 PUSH4 0x81D12C58 EQ PUSH2 0x20A JUMPI DUP1 PUSH4 0x82FDE093 EQ PUSH2 0x24B JUMPI PUSH2 0xC2 JUMP JUMPDEST DUP1 PUSH4 0x3441006 EQ PUSH2 0xC7 JUMPI DUP1 PUSH4 0x724FDA9 EQ PUSH2 0xF0 JUMPI DUP1 PUSH4 0xA144391 EQ PUSH2 0x11B JUMPI DUP1 PUSH4 0x1F6F90BD EQ PUSH2 0x158 JUMPI DUP1 PUSH4 0x3410452A EQ PUSH2 0x183 JUMPI DUP1 PUSH4 0x4051DDAC EQ PUSH2 0x1AE JUMPI JUMPDEST PUSH1 0x0 DUP1 REVERT JUMPDEST CALLVALUE DUP1 ISZERO PUSH2 0xD3 JUMPI PUSH1 0x0 DUP1 REVERT JUMPDEST POP PUSH2 0xEE PUSH1 0x4 DUP1 CALLDATASIZE SUB DUP2 ADD SWAP1 PUSH2 0xE9 SWAP2 SWAP1 PUSH2 0xC14 JUMP JUMPDEST PUSH2 0x2FD JUMP JUMPDEST STOP JUMPDEST CALLVALUE DUP1 ISZERO PUSH2 0xFC JUMPI PUSH1 0x0 DUP1 REVERT JUMPDEST POP PUSH2 0x105 PUSH2 0x436 JUMP JUMPDEST PUSH1 0x40 MLOAD PUSH2 0x112 SWAP2 SWAP1 PUSH2 0xCDA JUMP JUMPDEST PUSH1 0x40 MLOAD DUP1 SWAP2 SUB SWAP1 RETURN JUMPDEST CALLVALUE DUP1 ISZERO PUSH2 0x127 JUMPI PUSH1 0x0 DUP1 REVERT JUMPDEST POP PUSH2 0x142 PUSH1 0x4 DUP1 CALLDATASIZE SUB DUP2 ADD SWAP1 PUSH2 0x13D SWAP2 SWAP1 PUSH2 0xD5A JUMP JUMPDEST PUSH2 0x4C4 JUMP JUMPDEST PUSH1 0x40 MLOAD PUSH2 0x14F SWAP2 SWAP1 PUSH2 0xDA2 JUMP JUMPDEST PUSH1 0x40 MLOAD DUP1 SWAP2 SUB SWAP1 RETURN JUMPDEST CALLVALUE DUP1 ISZERO PUSH2 0x164 JUMPI PUSH1 0x0 DUP1 REVERT JUMPDEST POP PUSH2 0x16D PUSH2 0x4E4 JUMP JUMPDEST PUSH1 0x40 MLOAD PUSH2 0x17A SWAP2 SWAP1 PUSH2 0xCDA JUMP JUMPDEST PUSH1 0x40 MLOAD DUP1 SWAP2 SUB SWAP1 RETURN JUMPDEST CALLVALUE DUP1 ISZERO PUSH2 0x18F JUMPI PUSH1 0x0 DUP1 REVERT JUMPDEST POP PUSH2 0x198 PUSH2 0x572 JUMP JUMPDEST PUSH1 0x40 MLOAD PUSH2 0x1A5 SWAP2 SWAP1 PUSH2 0xDCC JUMP JUMPDEST PUSH1 0x40 MLOAD DUP1 SWAP2 SUB SWAP1 RETURN JUMPDEST CALLVALUE DUP1 ISZERO PUSH2 0x1BA JUMPI PUSH1 0x0 DUP1 REVERT JUMPDEST POP PUSH2 0x1C3 PUSH2 0x57C JUMP JUMPDEST PUSH1 0x40 MLOAD PUSH2 0x1D6 SWAP8 SWAP7 SWAP6 SWAP5 SWAP4 SWAP3 SWAP2 SWAP1 PUSH2 0xDF6 JUMP JUMPDEST PUSH1 0x40 MLOAD DUP1 SWAP2 SUB SWAP1 RETURN JUMPDEST CALLVALUE DUP1 ISZERO PUSH2 0x1EB JUMPI PUSH1 0x0 DUP1 REVERT JUMPDEST POP PUSH2 0x1F4 PUSH2 0x6E5 JUMP JUMPDEST PUSH1 0x40 MLOAD PUSH2 0x201 SWAP2 SWAP1 PUSH2 0xE73 JUMP JUMPDEST PUSH1 0x40 MLOAD DUP1 SWAP2 SUB SWAP1 RETURN JUMPDEST CALLVALUE DUP1 ISZERO PUSH2 0x216 JUMPI PUSH1 0x0 DUP1 REVERT JUMPDEST POP PUSH2 0x231 PUSH1 0x4 DUP1 CALLDATASIZE SUB DUP2 ADD SWAP1 PUSH2 0x22C SWAP2 SWAP1 PUSH2 0xC14 JUMP JUMPDEST PUSH2 0x709 JUMP JUMPDEST PUSH1 0x40 MLOAD PUSH2 0x242 SWAP6 SWAP5 SWAP4 SWAP3 SWAP2 SWAP1 PUSH2 0xEAF JUMP JUMPDEST PUSH1 0x40 MLOAD DUP1 SWAP2 SUB SWAP1 RETURN JUMPDEST CALLVALUE DUP1 ISZERO PUSH2 0x257 JUMPI PUSH1 0x0 DUP1 REVERT JUMPDEST POP PUSH2 0x260 PUSH2 0x7F4 JUMP JUMPDEST PUSH1 0x40 MLOAD PUSH2 0x26D SWAP2 SWAP1 PUSH2 0xDCC JUMP JUMPDEST PUSH1 0x40 MLOAD DUP1 SWAP2 SUB SWAP1 RETURN JUMPDEST CALLVALUE DUP1 ISZERO PUSH2 0x282 JUMPI PUSH1 0x0 DUP1 REVERT JUMPDEST POP PUSH2 0x29D PUSH1 0x4 DUP1 CALLDATASIZE SUB DUP2 ADD SWAP1 PUSH2 0x298 SWAP2 SWAP1 PUSH2 0x106A JUMP JUMPDEST PUSH2 0x7FA JUMP JUMPDEST STOP JUMPDEST CALLVALUE DUP1 ISZERO PUSH2 0x2AB JUMPI PUSH1 0x0 DUP1 REVERT JUMPDEST POP PUSH2 0x2B4 PUSH2 0x911 JUMP JUMPDEST PUSH1 0x40 MLOAD PUSH2 0x2C1 SWAP2 SWAP1 PUSH2 0xDCC JUMP JUMPDEST PUSH1 0x40 MLOAD DUP1 SWAP2 SUB SWAP1 RETURN JUMPDEST PUSH2 0x2D2 PUSH2 0x917 JUMP JUMPDEST STOP JUMPDEST CALLVALUE DUP1 ISZERO PUSH2 0x2E0 JUMPI PUSH1 0x0 DUP1 REVERT JUMPDEST POP PUSH2 0x2FB PUSH1 0x4 DUP1 CALLDATASIZE SUB DUP2 ADD SWAP1 PUSH2 0x2F6 SWAP2 SWAP1 PUSH2 0xC14 JUMP JUMPDEST PUSH2 0x9E9 JUMP JUMPDEST STOP JUMPDEST PUSH1 0x0 DUP1 SLOAD SWAP1 PUSH2 0x100 EXP SWAP1 DIV PUSH20 0xFFFFFFFFFFFFFFFFFFFFFFFFFFFFFFFFFFFFFFFF AND PUSH20 0xFFFFFFFFFFFFFFFFFFFFFFFFFFFFFFFFFFFFFFFF AND CALLER PUSH20 0xFFFFFFFFFFFFFFFFFFFFFFFFFFFFFFFFFFFFFFFF AND EQ PUSH2 0x355 JUMPI PUSH1 0x0 DUP1 REVERT JUMPDEST PUSH1 0x0 PUSH1 0x4 PUSH1 0x0 DUP4 DUP2 MSTORE PUSH1 0x20 ADD SWAP1 DUP2 MSTORE PUSH1 0x20 ADD PUSH1 0x0 KECCAK256 SWAP1 POP DUP1 PUSH1 0x2 ADD PUSH1 0x14 SWAP1 SLOAD SWAP1 PUSH2 0x100 EXP SWAP1 DIV PUSH1 0xFF AND ISZERO PUSH2 0x388 JUMPI PUSH1 0x0 DUP1 REVERT JUMPDEST PUSH1 0x2 PUSH1 0x5 SLOAD PUSH2 0x397 SWAP2 SWAP1 PUSH2 0x1137 JUMP JUMPDEST DUP2 PUSH1 0x3 ADD SLOAD GT PUSH2 0x3A6 JUMPI PUSH1 0x0 DUP1 REVERT JUMPDEST DUP1 PUSH1 0x2 ADD PUSH1 0x0 SWAP1 SLOAD SWAP1 PUSH2 0x100 EXP SWAP1 DIV PUSH20 0xFFFFFFFFFFFFFFFFFFFFFFFFFFFFFFFFFFFFFFFF AND PUSH20 0xFFFFFFFFFFFFFFFFFFFFFFFFFFFFFFFFFFFFFFFF AND PUSH2 0x8FC DUP3 PUSH1 0x1 ADD SLOAD SWAP1 DUP2 ISZERO MUL SWAP1 PUSH1 0x40 MLOAD PUSH1 0x0 PUSH1 0x40 MLOAD DUP1 DUP4 SUB DUP2 DUP6 DUP9 DUP9 CALL SWAP4 POP POP POP POP ISZERO DUP1 ISZERO PUSH2 0x414 JUMPI RETURNDATASIZE PUSH1 0x0 DUP1 RETURNDATACOPY RETURNDATASIZE PUSH1 0x0 REVERT JUMPDEST POP PUSH1 0x1 DUP2 PUSH1 0x2 ADD PUSH1 0x14 PUSH2 0x100 EXP DUP2 SLOAD DUP2 PUSH1 0xFF MUL NOT AND SWAP1 DUP4 ISZERO ISZERO MUL OR SWAP1 SSTORE POP POP POP JUMP JUMPDEST PUSH1 0x6 DUP1 SLOAD PUSH2 0x443 SWAP1 PUSH2 0x1197 JUMP JUMPDEST DUP1 PUSH1 0x1F ADD PUSH1 0x20 DUP1 SWAP2 DIV MUL PUSH1 0x20 ADD PUSH1 0x40 MLOAD SWAP1 DUP2 ADD PUSH1 0x40 MSTORE DUP1 SWAP3 SWAP2 SWAP1 DUP2 DUP2 MSTORE PUSH1 0x20 ADD DUP3 DUP1 SLOAD PUSH2 0x46F SWAP1 PUSH2 0x1197 JUMP JUMPDEST DUP1 ISZERO PUSH2 0x4BC JUMPI DUP1 PUSH1 0x1F LT PUSH2 0x491 JUMPI PUSH2 0x100 DUP1 DUP4 SLOAD DIV MUL DUP4 MSTORE SWAP2 PUSH1 0x20 ADD SWAP2 PUSH2 0x4BC JUMP JUMPDEST DUP3 ADD SWAP2 SWAP1 PUSH1 0x0 MSTORE PUSH1 0x20 PUSH1 0x0 KECCAK256 SWAP1 JUMPDEST DUP2 SLOAD DUP2 MSTORE SWAP1 PUSH1 0x1 ADD SWAP1 PUSH1 0x20 ADD DUP1 DUP4 GT PUSH2 0x49F JUMPI DUP3 SWAP1 SUB PUSH1 0x1F AND DUP3 ADD SWAP2 JUMPDEST POP POP POP POP POP DUP2 JUMP JUMPDEST PUSH1 0x2 PUSH1 0x20 MSTORE DUP1 PUSH1 0x0 MSTORE PUSH1 0x40 PUSH1 0x0 KECCAK256 PUSH1 0x0 SWAP2 POP SLOAD SWAP1 PUSH2 0x100 EXP SWAP1 DIV PUSH1 0xFF AND DUP2 JUMP JUMPDEST PUSH1 0x7 DUP1 SLOAD PUSH2 0x4F1 SWAP1 PUSH2 0x1197 JUMP JUMPDEST DUP1 PUSH1 0x1F ADD PUSH1 0x20 DUP1 SWAP2 DIV MUL PUSH1 0x20 ADD PUSH1 0x40 MLOAD SWAP1 DUP2 ADD PUSH1 0x40 MSTORE DUP1 SWAP3 SWAP2 SWAP1 DUP2 DUP2 MSTORE PUSH1 0x20 ADD DUP3 DUP1 SLOAD PUSH2 0x51D SWAP1 PUSH2 0x1197 JUMP JUMPDEST DUP1 ISZERO PUSH2 0x56A JUMPI DUP1 PUSH1 0x1F LT PUSH2 0x53F JUMPI PUSH2 0x100 DUP1 DUP4 SLOAD DIV MUL DUP4 MSTORE SWAP2 PUSH1 0x20 ADD SWAP2 PUSH2 0x56A JUMP JUMPDEST DUP3 ADD SWAP2 SWAP1 PUSH1 0x0 MSTORE PUSH1 0x20 PUSH1 0x0 KECCAK256 SWAP1 JUMPDEST DUP2 SLOAD DUP2 MSTORE SWAP1 PUSH1 0x1 ADD SWAP1 PUSH1 0x20 ADD DUP1 DUP4 GT PUSH2 0x54D JUMPI DUP3 SWAP1 SUB PUSH1 0x1F AND DUP3 ADD SWAP2 JUMPDEST POP POP POP POP POP DUP2 JUMP JUMPDEST PUSH1 0x0 PUSH1 0x3 SLOAD SWAP1 POP SWAP1 JUMP JUMPDEST PUSH1 0x0 DUP1 PUSH1 0x0 DUP1 PUSH1 0x0 PUSH1 0x60 DUP1 PUSH1 0x1 SLOAD SELFBALANCE PUSH1 0x3 SLOAD PUSH1 0x5 SLOAD PUSH1 0x0 DUP1 SLOAD SWAP1 PUSH2 0x100 EXP SWAP1 DIV PUSH20 0xFFFFFFFFFFFFFFFFFFFFFFFFFFFFFFFFFFFFFFFF AND PUSH1 0x6 PUSH1 0x7 DUP2 DUP1 SLOAD PUSH2 0x5C2 SWAP1 PUSH2 0x1197 JUMP JUMPDEST DUP1 PUSH1 0x1F ADD PUSH1 0x20 DUP1 SWAP2 DIV MUL PUSH1 0x20 ADD PUSH1 0x40 MLOAD SWAP1 DUP2 ADD PUSH1 0x40 MSTORE DUP1 SWAP3 SWAP2 SWAP1 DUP2 DUP2 MSTORE PUSH1 0x20 ADD DUP3 DUP1 SLOAD PUSH2 0x5EE SWAP1 PUSH2 0x1197 JUMP JUMPDEST DUP1 ISZERO PUSH2 0x63B JUMPI DUP1 PUSH1 0x1F LT PUSH2 0x610 JUMPI PUSH2 0x100 DUP1 DUP4 SLOAD DIV MUL DUP4 MSTORE SWAP2 PUSH1 0x20 ADD SWAP2 PUSH2 0x63B JUMP JUMPDEST DUP3 ADD SWAP2 SWAP1 PUSH1 0x0 MSTORE PUSH1 0x20 PUSH1 0x0 KECCAK256 SWAP1 JUMPDEST DUP2 SLOAD DUP2 MSTORE SWAP1 PUSH1 0x1 ADD SWAP1 PUSH1 0x20 ADD DUP1 DUP4 GT PUSH2 0x61E JUMPI DUP3 SWAP1 SUB PUSH1 0x1F AND DUP3 ADD SWAP2 JUMPDEST POP POP POP POP POP SWAP2 POP DUP1 DUP1 SLOAD PUSH2 0x64E SWAP1 PUSH2 0x1197 JUMP JUMPDEST DUP1 PUSH1 0x1F ADD PUSH1 0x20 DUP1 SWAP2 DIV MUL PUSH1 0x20 ADD PUSH1 0x40 MLOAD SWAP1 DUP2 ADD PUSH1 0x40 MSTORE DUP1 SWAP3 SWAP2 SWAP1 DUP2 DUP2 MSTORE PUSH1 0x20 ADD DUP3 DUP1 SLOAD PUSH2 0x67A SWAP1 PUSH2 0x1197 JUMP JUMPDEST DUP1 ISZERO PUSH2 0x6C7 JUMPI DUP1 PUSH1 0x1F LT PUSH2 0x69C JUMPI PUSH2 0x100 DUP1 DUP4 SLOAD DIV MUL DUP4 MSTORE SWAP2 PUSH1 0x20 ADD SWAP2 PUSH2 0x6C7 JUMP JUMPDEST DUP3 ADD SWAP2 SWAP1 PUSH1 0x0 MSTORE PUSH1 0x20 PUSH1 0x0 KECCAK256 SWAP1 JUMPDEST DUP2 SLOAD DUP2 MSTORE SWAP1 PUSH1 0x1 ADD SWAP1 PUSH1 0x20 ADD DUP1 DUP4 GT PUSH2 0x6AA JUMPI DUP3 SWAP1 SUB PUSH1 0x1F AND DUP3 ADD SWAP2 JUMPDEST POP POP POP POP POP SWAP1 POP SWAP7 POP SWAP7 POP SWAP7 POP SWAP7 POP SWAP7 POP SWAP7 POP SWAP7 POP SWAP1 SWAP2 SWAP3 SWAP4 SWAP5 SWAP6 SWAP7 JUMP JUMPDEST PUSH1 0x0 DUP1 SLOAD SWAP1 PUSH2 0x100 EXP SWAP1 DIV PUSH20 0xFFFFFFFFFFFFFFFFFFFFFFFFFFFFFFFFFFFFFFFF AND DUP2 JUMP JUMPDEST PUSH1 0x4 PUSH1 0x20 MSTORE DUP1 PUSH1 0x0 MSTORE PUSH1 0x40 PUSH1 0x0 KECCAK256 PUSH1 0x0 SWAP2 POP SWAP1 POP DUP1 PUSH1 0x0 ADD DUP1 SLOAD PUSH2 0x72C SWAP1 PUSH2 0x1197 JUMP JUMPDEST DUP1 PUSH1 0x1F ADD PUSH1 0x20 DUP1 SWAP2 DIV MUL PUSH1 0x20 ADD PUSH1 0x40 MLOAD SWAP1 DUP2 ADD PUSH1 0x40 MSTORE DUP1 SWAP3 SWAP2 SWAP1 DUP2 DUP2 MSTORE PUSH1 0x20 ADD DUP3 DUP1 SLOAD PUSH2 0x758 SWAP1 PUSH2 0x1197 JUMP JUMPDEST DUP1 ISZERO PUSH2 0x7A5 JUMPI DUP1 PUSH1 0x1F LT PUSH2 0x77A JUMPI PUSH2 0x100 DUP1 DUP4 SLOAD DIV MUL DUP4 MSTORE SWAP2 PUSH1 0x20 ADD SWAP2 PUSH2 0x7A5 JUMP JUMPDEST DUP3 ADD SWAP2 SWAP1 PUSH1 0x0 MSTORE PUSH1 0x20 PUSH1 0x0 KECCAK256 SWAP1 JUMPDEST DUP2 SLOAD DUP2 MSTORE SWAP1 PUSH1 0x1 ADD SWAP1 PUSH1 0x20 ADD DUP1 DUP4 GT PUSH2 0x788 JUMPI DUP3 SWAP1 SUB PUSH1 0x1F AND DUP3 ADD SWAP2 JUMPDEST POP POP POP POP POP SWAP1 DUP1 PUSH1 0x1 ADD SLOAD SWAP1 DUP1 PUSH1 0x2 ADD PUSH1 0x0 SWAP1 SLOAD SWAP1 PUSH2 0x100 EXP SWAP1 DIV PUSH20 0xFFFFFFFFFFFFFFFFFFFFFFFFFFFFFFFFFFFFFFFF AND SWAP1 DUP1 PUSH1 0x2 ADD PUSH1 0x14 SWAP1 SLOAD SWAP1 PUSH2 0x100 EXP SWAP1 DIV PUSH1 0xFF AND SWAP1 DUP1 PUSH1 0x3 ADD SLOAD SWAP1 POP DUP6 JUMP JUMPDEST PUSH1 0x5 SLOAD DUP2 JUMP JUMPDEST PUSH1 0x0 DUP1 SLOAD SWAP1 PUSH2 0x100 EXP SWAP1 DIV PUSH20 0xFFFFFFFFFFFFFFFFFFFFFFFFFFFFFFFFFFFFFFFF AND PUSH20 0xFFFFFFFFFFFFFFFFFFFFFFFFFFFFFFFFFFFFFFFF AND CALLER PUSH20 0xFFFFFFFFFFFFFFFFFFFFFFFFFFFFFFFFFFFFFFFF AND EQ PUSH2 0x852 JUMPI PUSH1 0x0 DUP1 REVERT JUMPDEST PUSH1 0x0 PUSH1 0x4 PUSH1 0x0 PUSH1 0x3 PUSH1 0x0 DUP2 SLOAD DUP1 SWAP3 SWAP2 SWAP1 PUSH2 0x86B SWAP1 PUSH2 0x11C9 JUMP JUMPDEST SWAP2 SWAP1 POP SSTORE DUP2 MSTORE PUSH1 0x20 ADD SWAP1 DUP2 MSTORE PUSH1 0x20 ADD PUSH1 0x0 KECCAK256 SWAP1 POP DUP4 DUP2 PUSH1 0x0 ADD SWAP1 DUP1 MLOAD SWAP1 PUSH1 0x20 ADD SWAP1 PUSH2 0x897 SWAP3 SWAP2 SWAP1 PUSH2 0xB27 JUMP JUMPDEST POP DUP3 DUP2 PUSH1 0x1 ADD DUP2 SWAP1 SSTORE POP DUP2 DUP2 PUSH1 0x2 ADD PUSH1 0x0 PUSH2 0x100 EXP DUP2 SLOAD DUP2 PUSH20 0xFFFFFFFFFFFFFFFFFFFFFFFFFFFFFFFFFFFFFFFF MUL NOT AND SWAP1 DUP4 PUSH20 0xFFFFFFFFFFFFFFFFFFFFFFFFFFFFFFFFFFFFFFFF AND MUL OR SWAP1 SSTORE POP PUSH1 0x0 DUP2 PUSH1 0x2 ADD PUSH1 0x14 PUSH2 0x100 EXP DUP2 SLOAD DUP2 PUSH1 0xFF MUL NOT AND SWAP1 DUP4 ISZERO ISZERO MUL OR SWAP1 SSTORE POP PUSH1 0x0 DUP2 PUSH1 0x3 ADD DUP2 SWAP1 SSTORE POP POP POP POP POP JUMP JUMPDEST PUSH1 0x1 SLOAD DUP2 JUMP JUMPDEST PUSH1 0x1 SLOAD CALLVALUE GT PUSH2 0x925 JUMPI PUSH1 0x0 DUP1 REVERT JUMPDEST PUSH1 0x2 PUSH1 0x0 CALLER PUSH20 0xFFFFFFFFFFFFFFFFFFFFFFFFFFFFFFFFFFFFFFFF AND PUSH20 0xFFFFFFFFFFFFFFFFFFFFFFFFFFFFFFFFFFFFFFFF AND DUP2 MSTORE PUSH1 0x20 ADD SWAP1 DUP2 MSTORE PUSH1 0x20 ADD PUSH1 0x0 KECCAK256 PUSH1 0x0 SWAP1 SLOAD SWAP1 PUSH2 0x100 EXP SWAP1 DIV PUSH1 0xFF AND PUSH2 0x9E7 JUMPI PUSH1 0x1 PUSH1 0x2 PUSH1 0x0 CALLER PUSH20 0xFFFFFFFFFFFFFFFFFFFFFFFFFFFFFFFFFFFFFFFF AND PUSH20 0xFFFFFFFFFFFFFFFFFFFFFFFFFFFFFFFFFFFFFFFF AND DUP2 MSTORE PUSH1 0x20 ADD SWAP1 DUP2 MSTORE PUSH1 0x20 ADD PUSH1 0x0 KECCAK256 PUSH1 0x0 PUSH2 0x100 EXP DUP2 SLOAD DUP2 PUSH1 0xFF MUL NOT AND SWAP1 DUP4 ISZERO ISZERO MUL OR SWAP1 SSTORE POP PUSH1 0x5 PUSH1 0x0 DUP2 SLOAD DUP1 SWAP3 SWAP2 SWAP1 PUSH2 0x9E1 SWAP1 PUSH2 0x11C9 JUMP JUMPDEST SWAP2 SWAP1 POP SSTORE POP JUMPDEST JUMP JUMPDEST PUSH1 0x2 PUSH1 0x0 CALLER PUSH20 0xFFFFFFFFFFFFFFFFFFFFFFFFFFFFFFFFFFFFFFFF AND PUSH20 0xFFFFFFFFFFFFFFFFFFFFFFFFFFFFFFFFFFFFFFFF AND DUP2 MSTORE PUSH1 0x20 ADD SWAP1 DUP2 MSTORE PUSH1 0x20 ADD PUSH1 0x0 KECCAK256 PUSH1 0x0 SWAP1 SLOAD SWAP1 PUSH2 0x100 EXP SWAP1 DIV PUSH1 0xFF AND PUSH2 0xA3F JUMPI PUSH1 0x0 DUP1 REVERT JUMPDEST PUSH1 0x0 PUSH1 0x4 PUSH1 0x0 DUP4 DUP2 MSTORE PUSH1 0x20 ADD SWAP1 DUP2 MSTORE PUSH1 0x20 ADD PUSH1 0x0 KECCAK256 SWAP1 POP DUP1 PUSH1 0x4 ADD PUSH1 0x0 CALLER PUSH20 0xFFFFFFFFFFFFFFFFFFFFFFFFFFFFFFFFFFFFFFFF AND PUSH20 0xFFFFFFFFFFFFFFFFFFFFFFFFFFFFFFFFFFFFFFFF AND DUP2 MSTORE PUSH1 0x20 ADD SWAP1 DUP2 MSTORE PUSH1 0x20 ADD PUSH1 0x0 KECCAK256 PUSH1 0x0 SWAP1 SLOAD SWAP1 PUSH2 0x100 EXP SWAP1 DIV PUSH1 0xFF AND ISZERO PUSH2 0xAAF JUMPI PUSH1 0x0 DUP1 REVERT JUMPDEST PUSH1 0x1 DUP2 PUSH1 0x4 ADD PUSH1 0x0 CALLER PUSH20 0xFFFFFFFFFFFFFFFFFFFFFFFFFFFFFFFFFFFFFFFF AND PUSH20 0xFFFFFFFFFFFFFFFFFFFFFFFFFFFFFFFFFFFFFFFF AND DUP2 MSTORE PUSH1 0x20 ADD SWAP1 DUP2 MSTORE PUSH1 0x20 ADD PUSH1 0x0 KECCAK256 PUSH1 0x0 PUSH2 0x100 EXP DUP2 SLOAD DUP2 PUSH1 0xFF MUL NOT AND SWAP1 DUP4 ISZERO ISZERO MUL OR SWAP1 SSTORE POP DUP1 PUSH1 0x3 ADD PUSH1 0x0 DUP2 SLOAD DUP1 SWAP3 SWAP2 SWAP1 PUSH2 0xB1E SWAP1 PUSH2 0x11C9 JUMP JUMPDEST SWAP2 SWAP1 POP SSTORE POP POP POP JUMP JUMPDEST DUP3 DUP1 SLOAD PUSH2 0xB33 SWAP1 PUSH2 0x1197 JUMP JUMPDEST SWAP1 PUSH1 0x0 MSTORE PUSH1 0x20 PUSH1 0x0 KECCAK256 SWAP1 PUSH1 0x1F ADD PUSH1 0x20 SWAP1 DIV DUP2 ADD SWAP3 DUP3 PUSH2 0xB55 JUMPI PUSH1 0x0 DUP6 SSTORE PUSH2 0xB9C JUMP JUMPDEST DUP3 PUSH1 0x1F LT PUSH2 0xB6E JUMPI DUP1 MLOAD PUSH1 0xFF NOT AND DUP4 DUP1 ADD OR DUP6 SSTORE PUSH2 0xB9C JUMP JUMPDEST DUP3 DUP1 ADD PUSH1 0x1 ADD DUP6 SSTORE DUP3 ISZERO PUSH2 0xB9C JUMPI SWAP2 DUP3 ADD JUMPDEST DUP3 DUP2 GT ISZERO PUSH2 0xB9B JUMPI DUP3 MLOAD DUP3 SSTORE SWAP2 PUSH1 0x20 ADD SWAP2 SWAP1 PUSH1 0x1 ADD SWAP1 PUSH2 0xB80 JUMP JUMPDEST JUMPDEST POP SWAP1 POP PUSH2 0xBA9 SWAP2 SWAP1 PUSH2 0xBAD JUMP JUMPDEST POP SWAP1 JUMP JUMPDEST JUMPDEST DUP1 DUP3 GT ISZERO PUSH2 0xBC6 JUMPI PUSH1 0x0 DUP2 PUSH1 0x0 SWAP1 SSTORE POP PUSH1 0x1 ADD PUSH2 0xBAE JUMP JUMPDEST POP SWAP1 JUMP JUMPDEST PUSH1 0x0 PUSH1 0x40 MLOAD SWAP1 POP SWAP1 JUMP JUMPDEST PUSH1 0x0 DUP1 REVERT JUMPDEST PUSH1 0x0 DUP1 REVERT JUMPDEST PUSH1 0x0 DUP2 SWAP1 POP SWAP2 SWAP1 POP JUMP JUMPDEST PUSH2 0xBF1 DUP2 PUSH2 0xBDE JUMP JUMPDEST DUP2 EQ PUSH2 0xBFC JUMPI PUSH1 0x0 DUP1 REVERT JUMPDEST POP JUMP JUMPDEST PUSH1 0x0 DUP2 CALLDATALOAD SWAP1 POP PUSH2 0xC0E DUP2 PUSH2 0xBE8 JUMP JUMPDEST SWAP3 SWAP2 POP POP JUMP JUMPDEST PUSH1 0x0 PUSH1 0x20 DUP3 DUP5 SUB SLT ISZERO PUSH2 0xC2A JUMPI PUSH2 0xC29 PUSH2 0xBD4 JUMP JUMPDEST JUMPDEST PUSH1 0x0 PUSH2 0xC38 DUP5 DUP3 DUP6 ADD PUSH2 0xBFF JUMP JUMPDEST SWAP2 POP POP SWAP3 SWAP2 POP POP JUMP JUMPDEST PUSH1 0x0 DUP2 MLOAD SWAP1 POP SWAP2 SWAP1 POP JUMP JUMPDEST PUSH1 0x0 DUP3 DUP3 MSTORE PUSH1 0x20 DUP3 ADD SWAP1 POP SWAP3 SWAP2 POP POP JUMP JUMPDEST PUSH1 0x0 JUMPDEST DUP4 DUP2 LT ISZERO PUSH2 0xC7B JUMPI DUP1 DUP3 ADD MLOAD DUP2 DUP5 ADD MSTORE PUSH1 0x20 DUP2 ADD SWAP1 POP PUSH2 0xC60 JUMP JUMPDEST DUP4 DUP2 GT ISZERO PUSH2 0xC8A JUMPI PUSH1 0x0 DUP5 DUP5 ADD MSTORE JUMPDEST POP POP POP POP JUMP JUMPDEST PUSH1 0x0 PUSH1 0x1F NOT PUSH1 0x1F DUP4 ADD AND SWAP1 POP SWAP2 SWAP1 POP JUMP JUMPDEST PUSH1 0x0 PUSH2 0xCAC DUP3 PUSH2 0xC41 JUMP JUMPDEST PUSH2 0xCB6 DUP2 DUP6 PUSH2 0xC4C JUMP JUMPDEST SWAP4 POP PUSH2 0xCC6 DUP2 DUP6 PUSH1 0x20 DUP7 ADD PUSH2 0xC5D JUMP JUMPDEST PUSH2 0xCCF DUP2 PUSH2 0xC90 JUMP JUMPDEST DUP5 ADD SWAP2 POP POP SWAP3 SWAP2 POP POP JUMP JUMPDEST PUSH1 0x0 PUSH1 0x20 DUP3 ADD SWAP1 POP DUP2 DUP2 SUB PUSH1 0x0 DUP4 ADD MSTORE PUSH2 0xCF4 DUP2 DUP5 PUSH2 0xCA1 JUMP JUMPDEST SWAP1 POP SWAP3 SWAP2 POP POP JUMP JUMPDEST PUSH1 0x0 PUSH20 0xFFFFFFFFFFFFFFFFFFFFFFFFFFFFFFFFFFFFFFFF DUP3 AND SWAP1 POP SWAP2 SWAP1 POP JUMP JUMPDEST PUSH1 0x0 PUSH2 0xD27 DUP3 PUSH2 0xCFC JUMP JUMPDEST SWAP1 POP SWAP2 SWAP1 POP JUMP JUMPDEST PUSH2 0xD37 DUP2 PUSH2 0xD1C JUMP JUMPDEST DUP2 EQ PUSH2 0xD42 JUMPI PUSH1 0x0 DUP1 REVERT JUMPDEST POP JUMP JUMPDEST PUSH1 0x0 DUP2 CALLDATALOAD SWAP1 POP PUSH2 0xD54 DUP2 PUSH2 0xD2E JUMP JUMPDEST SWAP3 SWAP2 POP POP JUMP JUMPDEST PUSH1 0x0 PUSH1 0x20 DUP3 DUP5 SUB SLT ISZERO PUSH2 0xD70 JUMPI PUSH2 0xD6F PUSH2 0xBD4 JUMP JUMPDEST JUMPDEST PUSH1 0x0 PUSH2 0xD7E DUP5 DUP3 DUP6 ADD PUSH2 0xD45 JUMP JUMPDEST SWAP2 POP POP SWAP3 SWAP2 POP POP JUMP JUMPDEST PUSH1 0x0 DUP2 ISZERO ISZERO SWAP1 POP SWAP2 SWAP1 POP JUMP JUMPDEST PUSH2 0xD9C DUP2 PUSH2 0xD87 JUMP JUMPDEST DUP3 MSTORE POP POP JUMP JUMPDEST PUSH1 0x0 PUSH1 0x20 DUP3 ADD SWAP1 POP PUSH2 0xDB7 PUSH1 0x0 DUP4 ADD DUP5 PUSH2 0xD93 JUMP JUMPDEST SWAP3 SWAP2 POP POP JUMP JUMPDEST PUSH2 0xDC6 DUP2 PUSH2 0xBDE JUMP JUMPDEST DUP3 MSTORE POP POP JUMP JUMPDEST PUSH1 0x0 PUSH1 0x20 DUP3 ADD SWAP1 POP PUSH2 0xDE1 PUSH1 0x0 DUP4 ADD DUP5 PUSH2 0xDBD JUMP JUMPDEST SWAP3 SWAP2 POP POP JUMP JUMPDEST PUSH2 0xDF0 DUP2 PUSH2 0xD1C JUMP JUMPDEST DUP3 MSTORE POP POP JUMP JUMPDEST PUSH1 0x0 PUSH1 0xE0 DUP3 ADD SWAP1 POP PUSH2 0xE0B PUSH1 0x0 DUP4 ADD DUP11 PUSH2 0xDBD JUMP JUMPDEST PUSH2 0xE18 PUSH1 0x20 DUP4 ADD DUP10 PUSH2 0xDBD JUMP JUMPDEST PUSH2 0xE25 PUSH1 0x40 DUP4 ADD DUP9 PUSH2 0xDBD JUMP JUMPDEST PUSH2 0xE32 PUSH1 0x60 DUP4 ADD DUP8 PUSH2 0xDBD JUMP JUMPDEST PUSH2 0xE3F PUSH1 0x80 DUP4 ADD DUP7 PUSH2 0xDE7 JUMP JUMPDEST DUP2 DUP2 SUB PUSH1 0xA0 DUP4 ADD MSTORE PUSH2 0xE51 DUP2 DUP6 PUSH2 0xCA1 JUMP JUMPDEST SWAP1 POP DUP2 DUP2 SUB PUSH1 0xC0 DUP4 ADD MSTORE PUSH2 0xE65 DUP2 DUP5 PUSH2 0xCA1 JUMP JUMPDEST SWAP1 POP SWAP9 SWAP8 POP POP POP POP POP POP POP POP JUMP JUMPDEST PUSH1 0x0 PUSH1 0x20 DUP3 ADD SWAP1 POP PUSH2 0xE88 PUSH1 0x0 DUP4 ADD DUP5 PUSH2 0xDE7 JUMP JUMPDEST SWAP3 SWAP2 POP POP JUMP JUMPDEST PUSH1 0x0 PUSH2 0xE99 DUP3 PUSH2 0xCFC JUMP JUMPDEST SWAP1 POP SWAP2 SWAP1 POP JUMP JUMPDEST PUSH2 0xEA9 DUP2 PUSH2 0xE8E JUMP JUMPDEST DUP3 MSTORE POP POP JUMP JUMPDEST PUSH1 0x0 PUSH1 0xA0 DUP3 ADD SWAP1 POP DUP2 DUP2 SUB PUSH1 0x0 DUP4 ADD MSTORE PUSH2 0xEC9 DUP2 DUP9 PUSH2 0xCA1 JUMP JUMPDEST SWAP1 POP PUSH2 0xED8 PUSH1 0x20 DUP4 ADD DUP8 PUSH2 0xDBD JUMP JUMPDEST PUSH2 0xEE5 PUSH1 0x40 DUP4 ADD DUP7 PUSH2 0xEA0 JUMP JUMPDEST PUSH2 0xEF2 PUSH1 0x60 DUP4 ADD DUP6 PUSH2 0xD93 JUMP JUMPDEST PUSH2 0xEFF PUSH1 0x80 DUP4 ADD DUP5 PUSH2 0xDBD JUMP JUMPDEST SWAP7 SWAP6 POP POP POP POP POP POP JUMP JUMPDEST PUSH1 0x0 DUP1 REVERT JUMPDEST PUSH1 0x0 DUP1 REVERT JUMPDEST PUSH32 0x4E487B7100000000000000000000000000000000000000000000000000000000 PUSH1 0x0 MSTORE PUSH1 0x41 PUSH1 0x4 MSTORE PUSH1 0x24 PUSH1 0x0 REVERT JUMPDEST PUSH2 0xF4B DUP3 PUSH2 0xC90 JUMP JUMPDEST DUP2 ADD DUP2 DUP2 LT PUSH8 0xFFFFFFFFFFFFFFFF DUP3 GT OR ISZERO PUSH2 0xF6A JUMPI PUSH2 0xF69 PUSH2 0xF13 JUMP JUMPDEST JUMPDEST DUP1 PUSH1 0x40 MSTORE POP POP POP JUMP JUMPDEST PUSH1 0x0 PUSH2 0xF7D PUSH2 0xBCA JUMP JUMPDEST SWAP1 POP PUSH2 0xF89 DUP3 DUP3 PUSH2 0xF42 JUMP JUMPDEST SWAP2 SWAP1 POP JUMP JUMPDEST PUSH1 0x0 PUSH8 0xFFFFFFFFFFFFFFFF DUP3 GT ISZERO PUSH2 0xFA9 JUMPI PUSH2 0xFA8 PUSH2 0xF13 JUMP JUMPDEST JUMPDEST PUSH2 0xFB2 DUP3 PUSH2 0xC90 JUMP JUMPDEST SWAP1 POP PUSH1 0x20 DUP2 ADD SWAP1 POP SWAP2 SWAP1 POP JUMP JUMPDEST DUP3 DUP2 DUP4 CALLDATACOPY PUSH1 0x0 DUP4 DUP4 ADD MSTORE POP POP POP JUMP JUMPDEST PUSH1 0x0 PUSH2 0xFE1 PUSH2 0xFDC DUP5 PUSH2 0xF8E JUMP JUMPDEST PUSH2 0xF73 JUMP JUMPDEST SWAP1 POP DUP3 DUP2 MSTORE PUSH1 0x20 DUP2 ADD DUP5 DUP5 DUP5 ADD GT ISZERO PUSH2 0xFFD JUMPI PUSH2 0xFFC PUSH2 0xF0E JUMP JUMPDEST JUMPDEST PUSH2 0x1008 DUP5 DUP3 DUP6 PUSH2 0xFBF JUMP JUMPDEST POP SWAP4 SWAP3 POP POP POP JUMP JUMPDEST PUSH1 0x0 DUP3 PUSH1 0x1F DUP4 ADD SLT PUSH2 0x1025 JUMPI PUSH2 0x1024 PUSH2 0xF09 JUMP JUMPDEST JUMPDEST DUP2 CALLDATALOAD PUSH2 0x1035 DUP5 DUP3 PUSH1 0x20 DUP7 ADD PUSH2 0xFCE JUMP JUMPDEST SWAP2 POP POP SWAP3 SWAP2 POP POP JUMP JUMPDEST PUSH2 0x1047 DUP2 PUSH2 0xE8E JUMP JUMPDEST DUP2 EQ PUSH2 0x1052 JUMPI PUSH1 0x0 DUP1 REVERT JUMPDEST POP JUMP JUMPDEST PUSH1 0x0 DUP2 CALLDATALOAD SWAP1 POP PUSH2 0x1064 DUP2 PUSH2 0x103E JUMP JUMPDEST SWAP3 SWAP2 POP POP JUMP JUMPDEST PUSH1 0x0 DUP1 PUSH1 0x0 PUSH1 0x60 DUP5 DUP7 SUB SLT ISZERO PUSH2 0x1083 JUMPI PUSH2 0x1082 PUSH2 0xBD4 JUMP JUMPDEST JUMPDEST PUSH1 0x0 DUP5 ADD CALLDATALOAD PUSH8 0xFFFFFFFFFFFFFFFF DUP2 GT ISZERO PUSH2 0x10A1 JUMPI PUSH2 0x10A0 PUSH2 0xBD9 JUMP JUMPDEST JUMPDEST PUSH2 0x10AD DUP7 DUP3 DUP8 ADD PUSH2 0x1010 JUMP JUMPDEST SWAP4 POP POP PUSH1 0x20 PUSH2 0x10BE DUP7 DUP3 DUP8 ADD PUSH2 0xBFF JUMP JUMPDEST SWAP3 POP POP PUSH1 0x40 PUSH2 0x10CF DUP7 DUP3 DUP8 ADD PUSH2 0x1055 JUMP JUMPDEST SWAP2 POP POP SWAP3 POP SWAP3 POP SWAP3 JUMP JUMPDEST PUSH32 0x4E487B7100000000000000000000000000000000000000000000000000000000 PUSH1 0x0 MSTORE PUSH1 0x12 PUSH1 0x4 MSTORE PUSH1 0x24 PUSH1 0x0 REVERT JUMPDEST PUSH32 0x4E487B7100000000000000000000000000000000000000000000000000000000 PUSH1 0x0 MSTORE PUSH1 0x11 PUSH1 0x4 MSTORE PUSH1 0x24 PUSH1 0x0 REVERT JUMPDEST PUSH1 0x0 PUSH2 0x1142 DUP3 PUSH2 0xBDE JUMP JUMPDEST SWAP2 POP PUSH2 0x114D DUP4 PUSH2 0xBDE JUMP JUMPDEST SWAP3 POP DUP3 PUSH2 0x115D JUMPI PUSH2 0x115C PUSH2 0x10D9 JUMP JUMPDEST JUMPDEST DUP3 DUP3 DIV SWAP1 POP SWAP3 SWAP2 POP POP JUMP JUMPDEST PUSH32 0x4E487B7100000000000000000000000000000000000000000000000000000000 PUSH1 0x0 MSTORE PUSH1 0x22 PUSH1 0x4 MSTORE PUSH1 0x24 PUSH1 0x0 REVERT JUMPDEST PUSH1 0x0 PUSH1 0x2 DUP3 DIV SWAP1 POP PUSH1 0x1 DUP3 AND DUP1 PUSH2 0x11AF JUMPI PUSH1 0x7F DUP3 AND SWAP2 POP JUMPDEST PUSH1 0x20 DUP3 LT DUP2 EQ ISZERO PUSH2 0x11C3 JUMPI PUSH2 0x11C2 PUSH2 0x1168 JUMP JUMPDEST JUMPDEST POP SWAP2 SWAP1 POP JUMP JUMPDEST PUSH1 0x0 PUSH2 0x11D4 DUP3 PUSH2 0xBDE JUMP JUMPDEST SWAP2 POP PUSH32 0xFFFFFFFFFFFFFFFFFFFFFFFFFFFFFFFFFFFFFFFFFFFFFFFFFFFFFFFFFFFFFFFF DUP3 EQ ISZERO PUSH2 0x1207 JUMPI PUSH2 0x1206 PUSH2 0x1108 JUMP JUMPDEST JUMPDEST PUSH1 0x1 DUP3 ADD SWAP1 POP SWAP2 SWAP1 POP JUMP INVALID LOG2 PUSH5 0x6970667358 0x22 SLT KECCAK256 CALLDATACOPY DIFFICULTY PUSH28 0x38D6BA0AC9962B68A75002B0010F10317223BBC011342646FE0C9FBA 0xE2 PUSH5 0x736F6C6343 STOP ADDMOD SIGNEXTEND STOP CALLER "},"gasEstimates":{"creation":{"codeDepositCost":"936000","executionCost":"infinite","totalCost":"infinite"},"external":{"approveRequest(uint256)":"infinite","approvers(address)":"2890","approversCount()":"2496","campaignName()":"infinite","contribute()":"53266","createRequest(string,uint256,address)":"infinite","creatorName()":"infinite","finalizeRequest(uint256)":"infinite","getRequestsCount()":"2526","getSummary()":"infinite","manager()":"2534","minimumContribution()":"2473","requests(uint256)":"infinite"}},"methodIdentifiers":{"approveRequest(uint256)":"d7d1bbdb","approvers(address)":"0a144391","approversCount()":"82fde093","campaignName()":"0724fda9","contribute()":"d7bb99ba","createRequest(string,uint256,address)":"8a9cfd55","creatorName()":"1f6f90bd","finalizeRequest(uint256)":"03441006","getRequestsCount()":"3410452a","getSummary()":"4051ddac","manager()":"481c6a75","minimumContribution()":"937e09b1","requests(uint256)":"81d12c58"}},"storageLayout":{"storage":[{"astId":63,"contract":"Campaign.sol:Campaign","label":"manager","offset":0,"slot":"0","type":"t_address"},{"astId":65,"contract":"Campaign.sol:Campaign","label":"minimumContribution","offset":0,"slot":"1","type":"t_uint256"},{"astId":69,"contract":"Campaign.sol:Campaign","label":"approvers","offset":0,"slot":"2","type":"t_mapping(t_address,t_bool)"},{"astId":72,"contract":"Campaign.sol:Campaign","label":"numRequests","offset":0,"slot":"3","type":"t_uint256"},{"astId":77,"contract":"Campaign.sol:Campaign","label":"requests","offset":0,"slot":"4","type":"t_mapping(t_uint256,t_struct(Request)61_storage)"},{"astId":79,"contract":"Campaign.sol:Campaign","label":"approversCount","offset":0,"slot":"5","type":"t_uint256"},{"astId":81,"contract":"Campaign.sol:Campaign","label":"campaignName","offset":0,"slot":"6","type":"t_string_storage"},{"astId":83,"contract":"Campaign.sol:Campaign","label":"creatorName","offset":0,"slot":"7","type":"t_string_storage"}],"types":{"t_address":{"encoding":"inplace","label":"address","numberOfBytes":"20"},"t_address_payable":{"encoding":"inplace","label":"address payable","numberOfBytes":"20"},"t_bool":{"encoding":"inplace","label":"bool","numberOfBytes":"1"},"t_mapping(t_address,t_bool)":{"encoding":"mapping","key":"t_address","label":"mapping(address => bool)","numberOfBytes":"32","value":"t_bool"},"t_mapping(t_uint256,t_struct(Request)61_storage)":{"encoding":"mapping","key":"t_uint256","label":"mapping(uint256 => struct Campaign.Request)","numberOfBytes":"32","value":"t_struct(Request)61_storage"},"t_string_storage":{"encoding":"bytes","label":"string","numberOfBytes":"32"},"t_struct(Request)61_storage":{"encoding":"inplace","label":"struct Campaign.Request","members":[{"astId":48,"contract":"Campaign.sol:Campaign","label":"description","offset":0,"slot":"0","type":"t_string_storage"},{"astId":50,"contract":"Campaign.sol:Campaign","label":"value","offset":0,"slot":"1","type":"t_uint256"},{"astId":52,"contract":"Campaign.sol:Campaign","label":"recipient","offset":0,"slot":"2","type":"t_address_payable"},{"astId":54,"contract":"Campaign.sol:Campaign","label":"complete","offset":20,"slot":"2","type":"t_bool"},{"astId":56,"contract":"Campaign.sol:Campaign","label":"approvalCount","offset":0,"slot":"3","type":"t_uint256"},{"astId":60,"contract":"Campaign.sol:Campaign","label":"approvals","offset":0,"slot":"4","type":"t_mapping(t_address,t_bool)"}],"numberOfBytes":"160"},"t_uint256":{"encoding":"inplace","label":"uint256","numberOfBytes":"32"}}},"userdoc":{"kind":"user","methods":{},"version":1}}